{
  "contractName": "Rank",
  "abi": [
    {
      "constant": false,
      "inputs": [
        {
          "internalType": "uint8",
          "name": "numclients",
          "type": "uint8"
        }
      ],
      "name": "setting",
      "outputs": [],
      "payable": false,
      "stateMutability": "nonpayable",
      "type": "function"
    },
    {
      "constant": false,
      "inputs": [
        {
          "internalType": "uint16[]",
          "name": "avgdist",
          "type": "uint16[]"
        }
      ],
      "name": "upload",
      "outputs": [],
      "payable": false,
      "stateMutability": "nonpayable",
      "type": "function"
    },
    {
      "constant": false,
      "inputs": [],
      "name": "ranking",
      "outputs": [],
      "payable": false,
      "stateMutability": "nonpayable",
      "type": "function"
    },
    {
      "constant": true,
      "inputs": [],
      "name": "see_rank",
      "outputs": [
        {
          "internalType": "uint256[]",
          "name": "",
          "type": "uint256[]"
        }
      ],
      "payable": false,
      "stateMutability": "view",
      "type": "function"
    }
  ],
  "bytecode": "0x608060405234801561001057600080fd5b50610597806100206000396000f3fe608060405234801561001057600080fd5b506004361061004c5760003560e01c80633290e9c11461005157806342431e761461010957806392105b6e14610168578063972a2ec214610172575b600080fd5b6101076004803603602081101561006757600080fd5b810190808035906020019064010000000081111561008457600080fd5b82018360208201111561009657600080fd5b803590602001918460208302840111640100000000831117156100b857600080fd5b919080806020026020016040519081016040528093929190818152602001838360200280828437600081840152601f19601f8201169050808301925050505050505091929192905050506101a3565b005b610111610246565b6040518080602001828103825283818151815260200191508051906020019060200280838360005b83811015610154578082015181840152602081019050610139565b505050509050019250505060405180910390f35b61017061029e565b005b6101a16004803603602081101561018857600080fd5b81019080803560ff1690602001909291905050506103ca565b005b60008090505b81518110156102425760008282815181106101c057fe5b602002602001015161ffff16146101f957600181815481106101de57fe5b90600052602060002001600081548092919060010191905055505b81818151811061020557fe5b602002602001015161ffff166000828154811061021e57fe5b906000526020600020016000828254019250508190555080806001019150506101a9565b5050565b6060600280548060200260200160405190810160405280929190818152602001828054801561029457602002820191906000526020600020905b815481526020019060010190808311610280575b5050505050905090565b60008090505b60018054905081101561030157600181815481106102be57fe5b9060005260206000200154600082815481106102d657fe5b906000526020600020016000828254816102ec57fe5b049250508190555080806001019150506102a4565b5060008090505b6000805490508110156103c75760006001905060008090505b60008054905081101561039957600080828154811061033c57fe5b90600052602060002001541461038c576000838154811061035957fe5b90600052602060002001546000828154811061037157fe5b9060005260206000200154101561038b5781806001019250505b5b8080600101915050610321565b508060ff16600283815481106103ab57fe5b9060005260206000200181905550508080600101915050610308565b50565b80600360006101000a81548160ff021916908360ff160217905550600360009054906101000a900460ff1660ff166040519080825280602002602001820160405280156104265781602001602082028038833980820191505090505b506000908051906020019061043c9291906104f0565b50600360009054906101000a900460ff1660ff1660405190808252806020026020018201604052801561047e5781602001602082028038833980820191505090505b50600190805190602001906104949291906104f0565b50600360009054906101000a900460ff1660ff166040519080825280602002602001820160405280156104d65781602001602082028038833980820191505090505b50600290805190602001906104ec9291906104f0565b5050565b82805482825590600052602060002090810192821561052c579160200282015b8281111561052b578251825591602001919060010190610510565b5b509050610539919061053d565b5090565b61055f91905b8082111561055b576000816000905550600101610543565b5090565b9056fea265627a7a72315820e7ec1236d7ca2f24fc7d120a6a786fe9c2c93c3416d0b233d3c1b73645f777db64736f6c63430005100032",
  "source": "// SPDX-License-Identifier: MIT\npragma solidity >=0.4.22 <0.9.0;\n\ncontract Rank {\n    // mapping(uint8 => uint8) public IdtoIndex;\n    // mapping(uint8 => uint8) public IndextoId; \n\n    uint[] avgdistarr ; \n    uint[] votearr ; \n    uint[] rankarr ; \n\n    uint8 numclient ; \n    \n    function setting(uint8 numclients) public{\n        numclient = numclients ; \n        avgdistarr = new uint[](numclient) ; \n        votearr = new uint[](numclient) ; \n        rankarr = new uint[](numclient) ; \n    }\n\n    function upload(uint16[] memory avgdist) public {\n        for (uint i = 0 ; i < avgdist.length ; i++){\n            if(avgdist[i]!=0){\n                votearr[i]++ ; \n            }\n            avgdistarr[i] += avgdist[i] ; \n            }\n        }\n\n    function ranking() public {\n\n        for(uint i = 0 ; i<votearr.length ; i++){\n            avgdistarr[i]/=votearr[i] ; \n        }\n\n        for(uint i = 0 ; i<avgdistarr.length ; i++){\n            uint8 rank = 1 ;\n            for(uint j = 0 ; j<avgdistarr.length ; j++){\n                if(avgdistarr[j]!=0){\n                    if(avgdistarr[j]<avgdistarr[i]){\n                        rank ++ ; \n                    }\n                } \n            }\n            rankarr[i] = rank ; \n        }\n    }\n\n    function see_rank() public view returns(uint[] memory){\n        return rankarr ; \n    }\n\n\n    //개별 ranking 산정 version \n    // function ranking(uint8 clientIndex) returns(uint8) public{\n    //     uint8 rank = 1 ; \n    //     for(uint i = 0 ; i<avgdistarr.length ; i++){\n    //         if(avgdistarr[i]!=0){\n    //             if(avgdistarr[i]<avgdistarr[clientIndex]){\n    //                 rank ++ ; \n    //             }\n    //         }\n    //     }\n    //     return rank ; \n    // }\n\n}\n\n",
  "sourcePath": "/Users/minseokkim/workspace/FLwithBC/src/contracts/Rank.sol",
  "compiler": {
    "name": "solc",
    "version": "0.5.16+commit.9c3226ce.Emscripten.clang"
  },
  "schemaVersion": "3.3.3",
  "updatedAt": "2021-02-05T07:18:54.834Z",
  "networkType": "ethereum",
  "devdoc": {
    "methods": {}
  },
  "userdoc": {
    "methods": {}
  }
}