{
  "contractName": "PointsBoard",
  "abi": [
    {
      "inputs": [
        {
          "internalType": "uint256",
          "name": "maxSize",
          "type": "uint256"
        }
      ],
      "stateMutability": "nonpayable",
      "type": "constructor"
    },
    {
      "inputs": [
        {
          "internalType": "address[]",
          "name": "teachers",
          "type": "address[]"
        },
        {
          "internalType": "uint256[]",
          "name": "points",
          "type": "uint256[]"
        }
      ],
      "name": "upload",
      "outputs": [],
      "stateMutability": "nonpayable",
      "type": "function"
    },
    {
      "inputs": [
        {
          "internalType": "address",
          "name": "teacherAddr",
          "type": "address"
        }
      ],
      "name": "seeMedianPoint",
      "outputs": [
        {
          "internalType": "uint256",
          "name": "",
          "type": "uint256"
        }
      ],
      "stateMutability": "view",
      "type": "function"
    },
    {
      "inputs": [
        {
          "internalType": "address",
          "name": "teacherAddr",
          "type": "address"
        }
      ],
      "name": "seeMaxHeap",
      "outputs": [
        {
          "internalType": "address[]",
          "name": "",
          "type": "address[]"
        }
      ],
      "stateMutability": "view",
      "type": "function"
    },
    {
      "inputs": [
        {
          "internalType": "address",
          "name": "teacherAddr",
          "type": "address"
        }
      ],
      "name": "seeMinHeap",
      "outputs": [
        {
          "internalType": "address[]",
          "name": "",
          "type": "address[]"
        }
      ],
      "stateMutability": "view",
      "type": "function"
    },
    {
      "inputs": [
        {
          "internalType": "address",
          "name": "teacherAddr",
          "type": "address"
        }
      ],
      "name": "seeQueue",
      "outputs": [
        {
          "internalType": "address[]",
          "name": "",
          "type": "address[]"
        }
      ],
      "stateMutability": "view",
      "type": "function"
    }
  ],
  "bytecode": "0x608060405234801561001057600080fd5b50604051612dd8380380612dd88339818101604052602081101561003357600080fd5b81019080805190602001909291905050508060008190555050612d7d8061005b6000396000f3fe608060405234801561001057600080fd5b50600436106100575760003560e01c8063466bafed1461005c578063743b8d87146100f5578063896e0c7914610241578063ab12d235146102da578063eddfbc6f14610373575b600080fd5b61009e6004803603602081101561007257600080fd5b81019080803573ffffffffffffffffffffffffffffffffffffffff1690602001909291905050506103cb565b6040518080602001828103825283818151815260200191508051906020019060200280838360005b838110156100e15780820151818401526020810190506100c6565b505050509050019250505060405180910390f35b61023f6004803603604081101561010b57600080fd5b810190808035906020019064010000000081111561012857600080fd5b82018360208201111561013a57600080fd5b8035906020019184602083028401116401000000008311171561015c57600080fd5b919080806020026020016040519081016040528093929190818152602001838360200280828437600081840152601f19601f820116905080830192505050505050509192919290803590602001906401000000008111156101bc57600080fd5b8201836020820111156101ce57600080fd5b803590602001918460208302840111640100000000831117156101f057600080fd5b919080806020026020016040519081016040528093929190818152602001838360200280828437600081840152601f19601f820116905080830192505050505050509192919290505050610673565b005b6102836004803603602081101561025757600080fd5b81019080803573ffffffffffffffffffffffffffffffffffffffff169060200190929190505050610971565b6040518080602001828103825283818151815260200191508051906020019060200280838360005b838110156102c65780820151818401526020810190506102ab565b505050509050019250505060405180910390f35b61031c600480360360208110156102f057600080fd5b81019080803573ffffffffffffffffffffffffffffffffffffffff169060200190929190505050610acf565b6040518080602001828103825283818151815260200191508051906020019060200280838360005b8381101561035f578082015181840152602081019050610344565b505050509050019250505060405180910390f35b6103b56004803603602081101561038957600080fd5b81019080803573ffffffffffffffffffffffffffffffffffffffff169060200190929190505050610c2d565b6040518082815260200191505060405180910390f35b6060600360008373ffffffffffffffffffffffffffffffffffffffff1673ffffffffffffffffffffffffffffffffffffffff16815260200190815260200160002060009054906101000a900460ff161561063a5760606000546040519080825280602002602001820160405280156104525781602001602082028038833980820191505090505b5090506000600160008573ffffffffffffffffffffffffffffffffffffffff1673ffffffffffffffffffffffffffffffffffffffff16815260200190815260200160002060080160000160008073ffffffffffffffffffffffffffffffffffffffff1673ffffffffffffffffffffffffffffffffffffffff16815260200190815260200160002060009054906101000a900473ffffffffffffffffffffffffffffffffffffffff16905060008090505b600073ffffffffffffffffffffffffffffffffffffffff168273ffffffffffffffffffffffffffffffffffffffff161461062f578183828151811061054357fe5b602002602001019073ffffffffffffffffffffffffffffffffffffffff16908173ffffffffffffffffffffffffffffffffffffffff1681525050600160008673ffffffffffffffffffffffffffffffffffffffff1673ffffffffffffffffffffffffffffffffffffffff16815260200190815260200160002060080160000160008373ffffffffffffffffffffffffffffffffffffffff1673ffffffffffffffffffffffffffffffffffffffff16815260200190815260200160002060009054906101000a900473ffffffffffffffffffffffffffffffffffffffff1691508080600101915050610502565b82935050505061066e565b600160405190808252806020026020018201604052801561066a5781602001602082028038833980820191505090505b5090505b919050565b600033905060008090505b835181101561096b576003600085838151811061069757fe5b602002602001015173ffffffffffffffffffffffffffffffffffffffff1673ffffffffffffffffffffffffffffffffffffffff16815260200190815260200160002060009054906101000a900460ff166108ef576001600360008684815181106106fd57fe5b602002602001015173ffffffffffffffffffffffffffffffffffffffff1673ffffffffffffffffffffffffffffffffffffffff16815260200190815260200160002060006101000a81548160ff0219169083151502179055506000546040519080825280602002602001820160405280156107875781602001602082028038833980820191505090505b506001600086848151811061079857fe5b602002602001015173ffffffffffffffffffffffffffffffffffffffff1673ffffffffffffffffffffffffffffffffffffffff16815260200190815260200160002060000160000190805190602001906107f3929190612c7a565b506000546040519080825280602002602001820160405280156108255781602001602082028038833980820191505090505b506001600086848151811061083657fe5b602002602001015173ffffffffffffffffffffffffffffffffffffffff1673ffffffffffffffffffffffffffffffffffffffff1681526020019081526020016000206003016000019080519060200190610891929190612c7a565b50600054600160008684815181106108a557fe5b602002602001015173ffffffffffffffffffffffffffffffffffffffff1673ffffffffffffffffffffffffffffffffffffffff168152602001908152602001600020600b01819055505b61095e6001600086848151811061090257fe5b602002602001015173ffffffffffffffffffffffffffffffffffffffff1673ffffffffffffffffffffffffffffffffffffffff1681526020019081526020016000208385848151811061095157fe5b6020026020010151610cd9565b808060010191505061067e565b50505050565b6060600360008373ffffffffffffffffffffffffffffffffffffffff1673ffffffffffffffffffffffffffffffffffffffff16815260200190815260200160002060009054906101000a900460ff1615610a9657600160008373ffffffffffffffffffffffffffffffffffffffff1673ffffffffffffffffffffffffffffffffffffffff168152602001908152602001600020600001600001805480602002602001604051908101604052809291908181526020018280548015610a8a57602002820191906000526020600020905b8160009054906101000a900473ffffffffffffffffffffffffffffffffffffffff1673ffffffffffffffffffffffffffffffffffffffff1681526020019060010190808311610a40575b50505050509050610aca565b6001604051908082528060200260200182016040528015610ac65781602001602082028038833980820191505090505b5090505b919050565b6060600360008373ffffffffffffffffffffffffffffffffffffffff1673ffffffffffffffffffffffffffffffffffffffff16815260200190815260200160002060009054906101000a900460ff1615610bf457600160008373ffffffffffffffffffffffffffffffffffffffff1673ffffffffffffffffffffffffffffffffffffffff168152602001908152602001600020600301600001805480602002602001604051908101604052809291908181526020018280548015610be857602002820191906000526020600020905b8160009054906101000a900473ffffffffffffffffffffffffffffffffffffffff1673ffffffffffffffffffffffffffffffffffffffff1681526020019060010190808311610b9e575b50505050509050610c28565b6001604051908082528060200260200182016040528015610c245781602001602082028038833980820191505090505b5090505b919050565b6000600360008373ffffffffffffffffffffffffffffffffffffffff1673ffffffffffffffffffffffffffffffffffffffff16815260200190815260200160002060009054906101000a900460ff1615610ccf57610cc8600160008473ffffffffffffffffffffffffffffffffffffffff1673ffffffffffffffffffffffffffffffffffffffff168152602001908152602001600020611075565b9050610cd4565b600090505b919050565b60008360060160008473ffffffffffffffffffffffffffffffffffffffff1673ffffffffffffffffffffffffffffffffffffffff1681526020019081526020016000205414610d3e57610d2f83600801836110cb565b610d398383611430565b610d7b565b82600b015483600801600201541415610d7a576000610d5f8460080161166a565b9050610d6e84600801826110cb565b610d788482611430565b505b5b610d8883600801836116d5565b808360070160008473ffffffffffffffffffffffffffffffffffffffff1673ffffffffffffffffffffffffffffffffffffffff16815260200190815260200160002081905550600083600001600101541415610e3b57610def8360000183856007016119b0565b60018360060160008473ffffffffffffffffffffffffffffffffffffffff1673ffffffffffffffffffffffffffffffffffffffff16815260200190815260200160002081905550611070565b80836007016000610e4e86600001611c86565b73ffffffffffffffffffffffffffffffffffffffff1673ffffffffffffffffffffffffffffffffffffffff168152602001908152602001600020541115610eec57610ea08360000183856007016119b0565b60018360060160008473ffffffffffffffffffffffffffffffffffffffff1673ffffffffffffffffffffffffffffffffffffffff16815260200190815260200160002081905550610f45565b610efd836003018385600701611cca565b60028360060160008473ffffffffffffffffffffffffffffffffffffffff1673ffffffffffffffffffffffffffffffffffffffff168152602001908152602001600020819055505b600183600301600101540183600001600101541115610fdd576000610f6c84600001611c86565b9050610f7f846000018286600701611fa0565b610f90846003018286600701611cca565b60028460060160008373ffffffffffffffffffffffffffffffffffffffff1673ffffffffffffffffffffffffffffffffffffffff168152602001908152602001600020819055505061106f565b82600301600101548360000160010154101561106e576000611001846003016125eb565b905061101484600301828660070161262f565b6110258460000182866007016119b0565b60018460060160008373ffffffffffffffffffffffffffffffffffffffff1673ffffffffffffffffffffffffffffffffffffffff16815260200190815260200160002081905550505b5b5b505050565b600081600701600061108984600001611c86565b73ffffffffffffffffffffffffffffffffffffffff1673ffffffffffffffffffffffffffffffffffffffff168152602001908152602001600020549050919050565b8160000160008273ffffffffffffffffffffffffffffffffffffffff1673ffffffffffffffffffffffffffffffffffffffff16815260200190815260200160002060009054906101000a900473ffffffffffffffffffffffffffffffffffffffff168260000160008460010160008573ffffffffffffffffffffffffffffffffffffffff1673ffffffffffffffffffffffffffffffffffffffff16815260200190815260200160002060009054906101000a900473ffffffffffffffffffffffffffffffffffffffff1673ffffffffffffffffffffffffffffffffffffffff1673ffffffffffffffffffffffffffffffffffffffff16815260200190815260200160002060006101000a81548173ffffffffffffffffffffffffffffffffffffffff021916908373ffffffffffffffffffffffffffffffffffffffff1602179055508160010160008273ffffffffffffffffffffffffffffffffffffffff1673ffffffffffffffffffffffffffffffffffffffff16815260200190815260200160002060009054906101000a900473ffffffffffffffffffffffffffffffffffffffff168260010160008460000160008573ffffffffffffffffffffffffffffffffffffffff1673ffffffffffffffffffffffffffffffffffffffff16815260200190815260200160002060009054906101000a900473ffffffffffffffffffffffffffffffffffffffff1673ffffffffffffffffffffffffffffffffffffffff1673ffffffffffffffffffffffffffffffffffffffff16815260200190815260200160002060006101000a81548173ffffffffffffffffffffffffffffffffffffffff021916908373ffffffffffffffffffffffffffffffffffffffff1602179055508160000160008273ffffffffffffffffffffffffffffffffffffffff1673ffffffffffffffffffffffffffffffffffffffff16815260200190815260200160002060006101000a81549073ffffffffffffffffffffffffffffffffffffffff02191690558160010160008273ffffffffffffffffffffffffffffffffffffffff1673ffffffffffffffffffffffffffffffffffffffff16815260200190815260200160002060006101000a81549073ffffffffffffffffffffffffffffffffffffffff02191690558160020160008154809291906001900391905055505050565b60008260060160008373ffffffffffffffffffffffffffffffffffffffff1673ffffffffffffffffffffffffffffffffffffffff168152602001908152602001600020549050600181141561149557611490836000018385600701611fa0565b6114b1565b60028114156114b0576114af83600301838560070161262f565b5b5b6001836003016001015401836000016001015411156115495760006114d884600001611c86565b90506114eb846000018286600701611fa0565b6114fc846003018286600701611cca565b60028460060160008373ffffffffffffffffffffffffffffffffffffffff1673ffffffffffffffffffffffffffffffffffffffff16815260200190815260200160002081905550506115db565b8260030160010154836000016001015410156115da57600061156d846003016125eb565b905061158084600301828660070161262f565b6115918460000182866007016119b0565b60018460060160008373ffffffffffffffffffffffffffffffffffffffff1673ffffffffffffffffffffffffffffffffffffffff16815260200190815260200160002081905550505b5b8260070160008373ffffffffffffffffffffffffffffffffffffffff1673ffffffffffffffffffffffffffffffffffffffff168152602001908152602001600020600090558260060160008373ffffffffffffffffffffffffffffffffffffffff1673ffffffffffffffffffffffffffffffffffffffff16815260200190815260200160002060009055505050565b60008160000160008073ffffffffffffffffffffffffffffffffffffffff1673ffffffffffffffffffffffffffffffffffffffff16815260200190815260200160002060009054906101000a900473ffffffffffffffffffffffffffffffffffffffff169050919050565b808260000160008460010160008073ffffffffffffffffffffffffffffffffffffffff1673ffffffffffffffffffffffffffffffffffffffff16815260200190815260200160002060009054906101000a900473ffffffffffffffffffffffffffffffffffffffff1673ffffffffffffffffffffffffffffffffffffffff1673ffffffffffffffffffffffffffffffffffffffff16815260200190815260200160002060006101000a81548173ffffffffffffffffffffffffffffffffffffffff021916908373ffffffffffffffffffffffffffffffffffffffff16021790555060008260000160008373ffffffffffffffffffffffffffffffffffffffff1673ffffffffffffffffffffffffffffffffffffffff16815260200190815260200160002060006101000a81548173ffffffffffffffffffffffffffffffffffffffff021916908373ffffffffffffffffffffffffffffffffffffffff1602179055508160010160008073ffffffffffffffffffffffffffffffffffffffff1673ffffffffffffffffffffffffffffffffffffffff16815260200190815260200160002060009054906101000a900473ffffffffffffffffffffffffffffffffffffffff168260010160008373ffffffffffffffffffffffffffffffffffffffff1673ffffffffffffffffffffffffffffffffffffffff16815260200190815260200160002060006101000a81548173ffffffffffffffffffffffffffffffffffffffff021916908373ffffffffffffffffffffffffffffffffffffffff160217905550808260010160008073ffffffffffffffffffffffffffffffffffffffff1673ffffffffffffffffffffffffffffffffffffffff16815260200190815260200160002060006101000a81548173ffffffffffffffffffffffffffffffffffffffff021916908373ffffffffffffffffffffffffffffffffffffffff16021790555081600201600081548092919060010191905055505050565b60008160008473ffffffffffffffffffffffffffffffffffffffff1673ffffffffffffffffffffffffffffffffffffffff1681526020019081526020016000205490508360010160008154809291906001019190505550600060018560010154039050600060026001830381611a2257fe5b0490505b6000821115611be057836000876000018381548110611a4157fe5b9060005260206000200160009054906101000a900473ffffffffffffffffffffffffffffffffffffffff1673ffffffffffffffffffffffffffffffffffffffff1673ffffffffffffffffffffffffffffffffffffffff16815260200190815260200160002054831115611bd657856000018181548110611abd57fe5b9060005260206000200160009054906101000a900473ffffffffffffffffffffffffffffffffffffffff16866000018381548110611af757fe5b9060005260206000200160006101000a81548173ffffffffffffffffffffffffffffffffffffffff021916908373ffffffffffffffffffffffffffffffffffffffff16021790555081866002016000886000018481548110611b5557fe5b9060005260206000200160009054906101000a900473ffffffffffffffffffffffffffffffffffffffff1673ffffffffffffffffffffffffffffffffffffffff1673ffffffffffffffffffffffffffffffffffffffff1681526020019081526020016000208190555080915060026001830381611bce57fe5b049050611bdb565b611be0565b611a26565b84866000018381548110611bf057fe5b9060005260206000200160006101000a81548173ffffffffffffffffffffffffffffffffffffffff021916908373ffffffffffffffffffffffffffffffffffffffff160217905550818660020160008773ffffffffffffffffffffffffffffffffffffffff1673ffffffffffffffffffffffffffffffffffffffff16815260200190815260200160002081905550505050505050565b600081600001600081548110611c9857fe5b9060005260206000200160009054906101000a900473ffffffffffffffffffffffffffffffffffffffff169050919050565b60008160008473ffffffffffffffffffffffffffffffffffffffff1673ffffffffffffffffffffffffffffffffffffffff1681526020019081526020016000205490508360010160008154809291906001019190505550600060018560010154039050600060026001830381611d3c57fe5b0490505b6000821115611efa57836000876000018381548110611d5b57fe5b9060005260206000200160009054906101000a900473ffffffffffffffffffffffffffffffffffffffff1673ffffffffffffffffffffffffffffffffffffffff1673ffffffffffffffffffffffffffffffffffffffff16815260200190815260200160002054831015611ef057856000018181548110611dd757fe5b9060005260206000200160009054906101000a900473ffffffffffffffffffffffffffffffffffffffff16866000018381548110611e1157fe5b9060005260206000200160006101000a81548173ffffffffffffffffffffffffffffffffffffffff021916908373ffffffffffffffffffffffffffffffffffffffff16021790555081866002016000886000018481548110611e6f57fe5b9060005260206000200160009054906101000a900473ffffffffffffffffffffffffffffffffffffffff1673ffffffffffffffffffffffffffffffffffffffff1673ffffffffffffffffffffffffffffffffffffffff1681526020019081526020016000208190555080915060026001830381611ee857fe5b049050611ef5565b611efa565b611d40565b84866000018381548110611f0a57fe5b9060005260206000200160006101000a81548173ffffffffffffffffffffffffffffffffffffffff021916908373ffffffffffffffffffffffffffffffffffffffff160217905550818660020160008773ffffffffffffffffffffffffffffffffffffffff1673ffffffffffffffffffffffffffffffffffffffff16815260200190815260200160002081905550505050505050565b600083600001600185600101540381548110611fb857fe5b9060005260206000200160009054906101000a900473ffffffffffffffffffffffffffffffffffffffff16905060008260008373ffffffffffffffffffffffffffffffffffffffff1673ffffffffffffffffffffffffffffffffffffffff16815260200190815260200160002054905084600101600081548092919060019003919050555060008560020160008673ffffffffffffffffffffffffffffffffffffffff1673ffffffffffffffffffffffffffffffffffffffff1681526020019081526020016000205490506000600182600202019050600060028360020201905060005b886001015482101561235d578660008a60000184815481106120ba57fe5b9060005260206000200160009054906101000a900473ffffffffffffffffffffffffffffffffffffffff1673ffffffffffffffffffffffffffffffffffffffff1673ffffffffffffffffffffffffffffffffffffffff168152602001908152602001600020548760008b600001868154811061213257fe5b9060005260206000200160009054906101000a900473ffffffffffffffffffffffffffffffffffffffff1673ffffffffffffffffffffffffffffffffffffffff1673ffffffffffffffffffffffffffffffffffffffff1681526020019081526020016000205411156121a6578290506121aa565b8190505b8660008a60000183815481106121bc57fe5b9060005260206000200160009054906101000a900473ffffffffffffffffffffffffffffffffffffffff1673ffffffffffffffffffffffffffffffffffffffff1673ffffffffffffffffffffffffffffffffffffffff168152602001908152602001600020548510156123535788600001818154811061223857fe5b9060005260206000200160009054906101000a900473ffffffffffffffffffffffffffffffffffffffff1689600001858154811061227257fe5b9060005260206000200160006101000a81548173ffffffffffffffffffffffffffffffffffffffff021916908373ffffffffffffffffffffffffffffffffffffffff160217905550838960020160008b60000184815481106122d057fe5b9060005260206000200160009054906101000a900473ffffffffffffffffffffffffffffffffffffffff1673ffffffffffffffffffffffffffffffffffffffff1673ffffffffffffffffffffffffffffffffffffffff16815260200190815260200160002081905550809350600184600202019250600284600202019150612358565b61235d565b61209c565b88600101548310156124fd578660008a600001858154811061237b57fe5b9060005260206000200160009054906101000a900473ffffffffffffffffffffffffffffffffffffffff1673ffffffffffffffffffffffffffffffffffffffff1673ffffffffffffffffffffffffffffffffffffffff168152602001908152602001600020548510156124fc578860000183815481106123f757fe5b9060005260206000200160009054906101000a900473ffffffffffffffffffffffffffffffffffffffff1689600001858154811061243157fe5b9060005260206000200160006101000a81548173ffffffffffffffffffffffffffffffffffffffff021916908373ffffffffffffffffffffffffffffffffffffffff160217905550838960020160008b600001868154811061248f57fe5b9060005260206000200160009054906101000a900473ffffffffffffffffffffffffffffffffffffffff1673ffffffffffffffffffffffffffffffffffffffff1673ffffffffffffffffffffffffffffffffffffffff168152602001908152602001600020819055508293505b5b8589600001858154811061250d57fe5b9060005260206000200160006101000a81548173ffffffffffffffffffffffffffffffffffffffff021916908373ffffffffffffffffffffffffffffffffffffffff160217905550838960020160008873ffffffffffffffffffffffffffffffffffffffff1673ffffffffffffffffffffffffffffffffffffffff168152602001908152602001600020819055508860020160008973ffffffffffffffffffffffffffffffffffffffff1673ffffffffffffffffffffffffffffffffffffffff16815260200190815260200160002060009055505050505050505050565b6000816000016000815481106125fd57fe5b9060005260206000200160009054906101000a900473ffffffffffffffffffffffffffffffffffffffff169050919050565b60008360000160018560010154038154811061264757fe5b9060005260206000200160009054906101000a900473ffffffffffffffffffffffffffffffffffffffff16905060008260008373ffffffffffffffffffffffffffffffffffffffff1673ffffffffffffffffffffffffffffffffffffffff16815260200190815260200160002054905084600101600081548092919060019003919050555060008560020160008673ffffffffffffffffffffffffffffffffffffffff1673ffffffffffffffffffffffffffffffffffffffff1681526020019081526020016000205490506000600182600202019050600060028360020201905060005b88600101548210156129ec578660008a600001848154811061274957fe5b9060005260206000200160009054906101000a900473ffffffffffffffffffffffffffffffffffffffff1673ffffffffffffffffffffffffffffffffffffffff1673ffffffffffffffffffffffffffffffffffffffff168152602001908152602001600020548760008b60000186815481106127c157fe5b9060005260206000200160009054906101000a900473ffffffffffffffffffffffffffffffffffffffff1673ffffffffffffffffffffffffffffffffffffffff1673ffffffffffffffffffffffffffffffffffffffff16815260200190815260200160002054101561283557829050612839565b8190505b8660008a600001838154811061284b57fe5b9060005260206000200160009054906101000a900473ffffffffffffffffffffffffffffffffffffffff1673ffffffffffffffffffffffffffffffffffffffff1673ffffffffffffffffffffffffffffffffffffffff168152602001908152602001600020548511156129e2578860000181815481106128c757fe5b9060005260206000200160009054906101000a900473ffffffffffffffffffffffffffffffffffffffff1689600001858154811061290157fe5b9060005260206000200160006101000a81548173ffffffffffffffffffffffffffffffffffffffff021916908373ffffffffffffffffffffffffffffffffffffffff160217905550838960020160008b600001848154811061295f57fe5b9060005260206000200160009054906101000a900473ffffffffffffffffffffffffffffffffffffffff1673ffffffffffffffffffffffffffffffffffffffff1673ffffffffffffffffffffffffffffffffffffffff168152602001908152602001600020819055508093506001846002020192506002846002020191506129e7565b6129ec565b61272b565b8860010154831015612b8c578660008a6000018581548110612a0a57fe5b9060005260206000200160009054906101000a900473ffffffffffffffffffffffffffffffffffffffff1673ffffffffffffffffffffffffffffffffffffffff1673ffffffffffffffffffffffffffffffffffffffff16815260200190815260200160002054851115612b8b57886000018381548110612a8657fe5b9060005260206000200160009054906101000a900473ffffffffffffffffffffffffffffffffffffffff16896000018581548110612ac057fe5b9060005260206000200160006101000a81548173ffffffffffffffffffffffffffffffffffffffff021916908373ffffffffffffffffffffffffffffffffffffffff160217905550838960020160008b6000018681548110612b1e57fe5b9060005260206000200160009054906101000a900473ffffffffffffffffffffffffffffffffffffffff1673ffffffffffffffffffffffffffffffffffffffff1673ffffffffffffffffffffffffffffffffffffffff168152602001908152602001600020819055508293505b5b85896000018581548110612b9c57fe5b9060005260206000200160006101000a81548173ffffffffffffffffffffffffffffffffffffffff021916908373ffffffffffffffffffffffffffffffffffffffff160217905550838960020160008873ffffffffffffffffffffffffffffffffffffffff1673ffffffffffffffffffffffffffffffffffffffff168152602001908152602001600020819055508860020160008973ffffffffffffffffffffffffffffffffffffffff1673ffffffffffffffffffffffffffffffffffffffff16815260200190815260200160002060009055505050505050505050565b828054828255906000526020600020908101928215612cf3579160200282015b82811115612cf25782518260006101000a81548173ffffffffffffffffffffffffffffffffffffffff021916908373ffffffffffffffffffffffffffffffffffffffff16021790555091602001919060010190612c9a565b5b509050612d009190612d04565b5090565b612d4491905b80821115612d4057600081816101000a81549073ffffffffffffffffffffffffffffffffffffffff021916905550600101612d0a565b5090565b9056fea264697066735822122063c2a7d19c5433efa0cde3342c0abf0b06395b3ed855a5fb15751ddb360d64a364736f6c63430006000033",
  "source": "// SPDX-License-Identifier: MIT\r\npragma solidity >=0.5.1 <0.9.0;\r\n\r\nimport \"./heap.sol\";\r\nimport \"./median_heap.sol\";\r\n\r\ncontract PointsBoard {\r\n    // if not use rounds, we have to save the sender\r\n    // or erase the previous points uploaded\r\n    using MinHeap for uint256;\r\n    using MaxHeap for uint256;\r\n    using MedianHeap for uint256;\r\n\r\n    uint256 maxHeapSize;\r\n\r\n    mapping(address => MedHeap) pointsHeap;\r\n    mapping(address => uint256) medianPoints;\r\n    mapping(address => bool) heapMade;\r\n    \r\n    constructor(uint256 maxSize) public {\r\n        maxHeapSize = maxSize;\r\n    }\r\n\r\n    // instead of rounds, how about getting the median of the last n votes?\r\n    function upload(address[] memory teachers, uint256[] memory points) public {\r\n        address senderAddr = msg.sender;\r\n        \r\n        for (uint256 i = 0; i < teachers.length; i++) {\r\n            if (!heapMade[teachers[i]]){\r\n                heapMade[teachers[i]] = true;\r\n                pointsHeap[teachers[i]].maxHeap.data = new address[](maxHeapSize);\r\n                pointsHeap[teachers[i]].minHeap.data = new address[](maxHeapSize);\r\n                pointsHeap[teachers[i]].maxHeapSize = maxHeapSize;\r\n            }\r\n            MedianHeap.insert(pointsHeap[teachers[i]], senderAddr, points[i]);\r\n        }\r\n    }\r\n\r\n    function seeMedianPoint(address teacherAddr) public view returns (uint256) {\r\n        if (heapMade[teacherAddr]) {\r\n            return MedianHeap.get_median(pointsHeap[teacherAddr]);\r\n        } else {\r\n            return 0;\r\n        }\r\n    }\r\n\r\n    function seeMaxHeap(address teacherAddr) public view returns (address[] memory) {\r\n        if (heapMade[teacherAddr]) {\r\n            return pointsHeap[teacherAddr].maxHeap.data;\r\n        } else {\r\n            return new address[](1);\r\n        }\r\n    }\r\n    \r\n    function seeMinHeap(address teacherAddr) public view returns (address[] memory) {\r\n        if (heapMade[teacherAddr]) {\r\n            return pointsHeap[teacherAddr].minHeap.data;\r\n        } else {\r\n            return new address[](1);\r\n        }\r\n    }\r\n    \r\n    function seeQueue(address teacherAddr) public view returns (address[] memory) {\r\n        if (heapMade[teacherAddr]) {\r\n            address[] memory queue = new address[](maxHeapSize);\r\n            address addr = pointsHeap[teacherAddr].addrQueue.next[address(0)];\r\n            uint256 index = 0;\r\n            while (addr != address(0)){\r\n                queue[index] = addr;\r\n                addr = pointsHeap[teacherAddr].addrQueue.next[addr];\r\n                index ++;\r\n            }\r\n            return queue;\r\n        } else {\r\n            return new address[](1);\r\n        }\r\n    }\r\n}",
  "sourcePath": "C:/Users/User/Development/pytorch/graduate_project/FLwithBC/src/truffle/contracts/pointsBoard.sol",
  "compiler": {
    "name": "solc",
    "version": "0.6.0+commit.26b70077.Emscripten.clang"
  },
  "schemaVersion": "3.3.3",
  "updatedAt": "2021-03-04T13:37:34.594Z",
  "devdoc": {
    "methods": {}
  },
  "userdoc": {
    "methods": {}
  }
}