{
  "contractName": "PointsBoard",
  "abi": [
    {
      "inputs": [
        {
          "internalType": "uint256",
          "name": "nPoints",
          "type": "uint256"
        },
        {
          "internalType": "uint256",
          "name": "nTeachers",
          "type": "uint256"
        }
      ],
      "stateMutability": "nonpayable",
      "type": "constructor"
    },
    {
      "inputs": [],
      "name": "assignTeachers",
      "outputs": [],
      "stateMutability": "nonpayable",
      "type": "function"
    },
    {
      "inputs": [],
      "name": "seeTeachers",
      "outputs": [
        {
          "internalType": "address[]",
          "name": "",
          "type": "address[]"
        }
      ],
      "stateMutability": "view",
      "type": "function"
    },
    {
      "inputs": [
        {
          "internalType": "address",
          "name": "teacher",
          "type": "address"
        }
      ],
      "name": "seePoints",
      "outputs": [
        {
          "internalType": "uint256[]",
          "name": "",
          "type": "uint256[]"
        }
      ],
      "stateMutability": "view",
      "type": "function"
    },
    {
      "inputs": [
        {
          "internalType": "address[]",
          "name": "teachers",
          "type": "address[]"
        },
        {
          "internalType": "uint256[]",
          "name": "points",
          "type": "uint256[]"
        }
      ],
      "name": "uploadPoints",
      "outputs": [],
      "stateMutability": "nonpayable",
      "type": "function"
    }
  ],
  "bytecode": "0x60806040523480156200001157600080fd5b50604051620026c9380380620026c9833981810160405281019062000037919062000064565b81600581905550806006819055505050620000c9565b6000815190506200005e81620000af565b92915050565b600080604083850312156200007857600080fd5b600062000088858286016200004d565b92505060206200009b858286016200004d565b9150509250929050565b6000819050919050565b620000ba81620000a5565b8114620000c657600080fd5b50565b6125f080620000d96000396000f3fe608060405234801561001057600080fd5b506004361061004c5760003560e01c806344eafb5714610051578063542321c01461008157806356cefd9f1461009f5780637de3c60a146100bb575b600080fd5b61006b600480360381019061006691906121a1565b6100c5565b6040516100789190612362565b60405180910390f35b6100896103b8565b6040516100969190612340565b60405180910390f35b6100b960048036038101906100b491906121ca565b610483565b005b6100c36107e6565b005b606060008060008473ffffffffffffffffffffffffffffffffffffffff1673ffffffffffffffffffffffffffffffffffffffff16815260200190815260200160002060030154905060008167ffffffffffffffff81111561014f577f4e487b7100000000000000000000000000000000000000000000000000000000600052604160045260246000fd5b60405190808252806020026020018201604052801561017d5781602001602082028036833780820191505090505b50905060008060008673ffffffffffffffffffffffffffffffffffffffff1673ffffffffffffffffffffffffffffffffffffffff16815260200190815260200160002060000160008073ffffffffffffffffffffffffffffffffffffffff1673ffffffffffffffffffffffffffffffffffffffff16815260200190815260200160002060009054906101000a900473ffffffffffffffffffffffffffffffffffffffff16905060005b838110156103ac5760008060008873ffffffffffffffffffffffffffffffffffffffff1673ffffffffffffffffffffffffffffffffffffffff16815260200190815260200160002060020160008473ffffffffffffffffffffffffffffffffffffffff1673ffffffffffffffffffffffffffffffffffffffff168152602001908152602001600020549050808483815181106102eb577f4e487b7100000000000000000000000000000000000000000000000000000000600052603260045260246000fd5b6020026020010181815250506000808873ffffffffffffffffffffffffffffffffffffffff1673ffffffffffffffffffffffffffffffffffffffff16815260200190815260200160002060000160008473ffffffffffffffffffffffffffffffffffffffff1673ffffffffffffffffffffffffffffffffffffffff16815260200190815260200160002060009054906101000a900473ffffffffffffffffffffffffffffffffffffffff1692505080806103a4906124e5565b915050610226565b50819350505050919050565b6060600460003373ffffffffffffffffffffffffffffffffffffffff1673ffffffffffffffffffffffffffffffffffffffff16815260200190815260200160002080548060200260200160405190810160405280929190818152602001828054801561047957602002820191906000526020600020905b8160009054906101000a900473ffffffffffffffffffffffffffffffffffffffff1673ffffffffffffffffffffffffffffffffffffffff168152602001906001019080831161042f575b5050505050905090565b600033905060005b835181101561079a5761051b6000808684815181106104d3577f4e487b7100000000000000000000000000000000000000000000000000000000600052603260045260246000fd5b602002602001015173ffffffffffffffffffffffffffffffffffffffff1673ffffffffffffffffffffffffffffffffffffffff168152602001908152602001600020836109f8565b156105ac576105a760008086848151811061055f577f4e487b7100000000000000000000000000000000000000000000000000000000600052603260045260246000fd5b602002602001015173ffffffffffffffffffffffffffffffffffffffff1673ffffffffffffffffffffffffffffffffffffffff16815260200190815260200160002083610b40565b6106bf565b6005546000808684815181106105eb577f4e487b7100000000000000000000000000000000000000000000000000000000600052603260045260246000fd5b602002602001015173ffffffffffffffffffffffffffffffffffffffff1673ffffffffffffffffffffffffffffffffffffffff1681526020019081526020016000206003015414156106be576106bd600080868481518110610676577f4e487b7100000000000000000000000000000000000000000000000000000000600052603260045260246000fd5b602002602001015173ffffffffffffffffffffffffffffffffffffffff1673ffffffffffffffffffffffffffffffffffffffff168152602001908152602001600020610eef565b5b5b6107876000808684815181106106fe577f4e487b7100000000000000000000000000000000000000000000000000000000600052603260045260246000fd5b602002602001015173ffffffffffffffffffffffffffffffffffffffff1673ffffffffffffffffffffffffffffffffffffffff1681526020019081526020016000208385848151811061077a577f4e487b7100000000000000000000000000000000000000000000000000000000600052603260045260246000fd5b6020026020010151611243565b8080610792906124e5565b91505061048b565b506107a660018261156b565b156107bb576107b66001826116b3565b6107d6565b60065460016002015414156107d5576107d46001611a1d565b5b5b6107e1600182611d2c565b505050565b600460003373ffffffffffffffffffffffffffffffffffffffff1673ffffffffffffffffffffffffffffffffffffffff1681526020019081526020016000206000610831919061200d565b60006001800160008073ffffffffffffffffffffffffffffffffffffffff1673ffffffffffffffffffffffffffffffffffffffff16815260200190815260200160002060009054906101000a900473ffffffffffffffffffffffffffffffffffffffff16905060005b600654811080156108d85750600073ffffffffffffffffffffffffffffffffffffffff168273ffffffffffffffffffffffffffffffffffffffff1614155b156109f457600460003373ffffffffffffffffffffffffffffffffffffffff1673ffffffffffffffffffffffffffffffffffffffff168152602001908152602001600020829080600181540180825580915050600190039060005260206000200160009091909190916101000a81548173ffffffffffffffffffffffffffffffffffffffff021916908373ffffffffffffffffffffffffffffffffffffffff1602179055506001800160008373ffffffffffffffffffffffffffffffffffffffff1673ffffffffffffffffffffffffffffffffffffffff16815260200190815260200160002060009054906101000a900473ffffffffffffffffffffffffffffffffffffffff16915080806109ec906124e5565b91505061089a565b5050565b60008073ffffffffffffffffffffffffffffffffffffffff168360000160008473ffffffffffffffffffffffffffffffffffffffff1673ffffffffffffffffffffffffffffffffffffffff16815260200190815260200160002060009054906101000a900473ffffffffffffffffffffffffffffffffffffffff1673ffffffffffffffffffffffffffffffffffffffff1614610a975760019050610b3a565b600073ffffffffffffffffffffffffffffffffffffffff168360010160008473ffffffffffffffffffffffffffffffffffffffff1673ffffffffffffffffffffffffffffffffffffffff16815260200190815260200160002060009054906101000a900473ffffffffffffffffffffffffffffffffffffffff1673ffffffffffffffffffffffffffffffffffffffff1614610b355760019050610b3a565b600090505b92915050565b8160000160008273ffffffffffffffffffffffffffffffffffffffff1673ffffffffffffffffffffffffffffffffffffffff16815260200190815260200160002060009054906101000a900473ffffffffffffffffffffffffffffffffffffffff168260000160008460010160008573ffffffffffffffffffffffffffffffffffffffff1673ffffffffffffffffffffffffffffffffffffffff16815260200190815260200160002060009054906101000a900473ffffffffffffffffffffffffffffffffffffffff1673ffffffffffffffffffffffffffffffffffffffff1673ffffffffffffffffffffffffffffffffffffffff16815260200190815260200160002060006101000a81548173ffffffffffffffffffffffffffffffffffffffff021916908373ffffffffffffffffffffffffffffffffffffffff1602179055508160010160008273ffffffffffffffffffffffffffffffffffffffff1673ffffffffffffffffffffffffffffffffffffffff16815260200190815260200160002060009054906101000a900473ffffffffffffffffffffffffffffffffffffffff168260010160008460000160008573ffffffffffffffffffffffffffffffffffffffff1673ffffffffffffffffffffffffffffffffffffffff16815260200190815260200160002060009054906101000a900473ffffffffffffffffffffffffffffffffffffffff1673ffffffffffffffffffffffffffffffffffffffff1673ffffffffffffffffffffffffffffffffffffffff16815260200190815260200160002060006101000a81548173ffffffffffffffffffffffffffffffffffffffff021916908373ffffffffffffffffffffffffffffffffffffffff1602179055508160000160008273ffffffffffffffffffffffffffffffffffffffff1673ffffffffffffffffffffffffffffffffffffffff16815260200190815260200160002060006101000a81549073ffffffffffffffffffffffffffffffffffffffff02191690558160010160008273ffffffffffffffffffffffffffffffffffffffff1673ffffffffffffffffffffffffffffffffffffffff16815260200190815260200160002060006101000a81549073ffffffffffffffffffffffffffffffffffffffff02191690558160020160008273ffffffffffffffffffffffffffffffffffffffff1673ffffffffffffffffffffffffffffffffffffffff16815260200190815260200160002060009055816003016000815480929190610ee6906124bb565b91905055505050565b60008160000160008073ffffffffffffffffffffffffffffffffffffffff1673ffffffffffffffffffffffffffffffffffffffff16815260200190815260200160002060009054906101000a900473ffffffffffffffffffffffffffffffffffffffff1690508160000160008273ffffffffffffffffffffffffffffffffffffffff1673ffffffffffffffffffffffffffffffffffffffff16815260200190815260200160002060009054906101000a900473ffffffffffffffffffffffffffffffffffffffff168260000160008073ffffffffffffffffffffffffffffffffffffffff1673ffffffffffffffffffffffffffffffffffffffff16815260200190815260200160002060006101000a81548173ffffffffffffffffffffffffffffffffffffffff021916908373ffffffffffffffffffffffffffffffffffffffff16021790555060008260010160008460000160008073ffffffffffffffffffffffffffffffffffffffff1673ffffffffffffffffffffffffffffffffffffffff16815260200190815260200160002060009054906101000a900473ffffffffffffffffffffffffffffffffffffffff1673ffffffffffffffffffffffffffffffffffffffff1673ffffffffffffffffffffffffffffffffffffffff16815260200190815260200160002060006101000a81548173ffffffffffffffffffffffffffffffffffffffff021916908373ffffffffffffffffffffffffffffffffffffffff1602179055508160000160008273ffffffffffffffffffffffffffffffffffffffff1673ffffffffffffffffffffffffffffffffffffffff16815260200190815260200160002060006101000a81549073ffffffffffffffffffffffffffffffffffffffff02191690558160010160008273ffffffffffffffffffffffffffffffffffffffff1673ffffffffffffffffffffffffffffffffffffffff16815260200190815260200160002060006101000a81549073ffffffffffffffffffffffffffffffffffffffff02191690558160020160008273ffffffffffffffffffffffffffffffffffffffff1673ffffffffffffffffffffffffffffffffffffffff1681526020019081526020016000206000905581600301600081548092919061123a906124bb565b91905055505050565b808360020160008473ffffffffffffffffffffffffffffffffffffffff1673ffffffffffffffffffffffffffffffffffffffff16815260200190815260200160002081905550818360000160008560010160008073ffffffffffffffffffffffffffffffffffffffff1673ffffffffffffffffffffffffffffffffffffffff16815260200190815260200160002060009054906101000a900473ffffffffffffffffffffffffffffffffffffffff1673ffffffffffffffffffffffffffffffffffffffff1673ffffffffffffffffffffffffffffffffffffffff16815260200190815260200160002060006101000a81548173ffffffffffffffffffffffffffffffffffffffff021916908373ffffffffffffffffffffffffffffffffffffffff16021790555060008360000160008473ffffffffffffffffffffffffffffffffffffffff1673ffffffffffffffffffffffffffffffffffffffff16815260200190815260200160002060006101000a81548173ffffffffffffffffffffffffffffffffffffffff021916908373ffffffffffffffffffffffffffffffffffffffff1602179055508260010160008073ffffffffffffffffffffffffffffffffffffffff1673ffffffffffffffffffffffffffffffffffffffff16815260200190815260200160002060009054906101000a900473ffffffffffffffffffffffffffffffffffffffff168360010160008473ffffffffffffffffffffffffffffffffffffffff1673ffffffffffffffffffffffffffffffffffffffff16815260200190815260200160002060006101000a81548173ffffffffffffffffffffffffffffffffffffffff021916908373ffffffffffffffffffffffffffffffffffffffff160217905550818360010160008073ffffffffffffffffffffffffffffffffffffffff1673ffffffffffffffffffffffffffffffffffffffff16815260200190815260200160002060006101000a81548173ffffffffffffffffffffffffffffffffffffffff021916908373ffffffffffffffffffffffffffffffffffffffff160217905550826003016000815480929190611561906124e5565b9190505550505050565b60008073ffffffffffffffffffffffffffffffffffffffff168360000160008473ffffffffffffffffffffffffffffffffffffffff1673ffffffffffffffffffffffffffffffffffffffff16815260200190815260200160002060009054906101000a900473ffffffffffffffffffffffffffffffffffffffff1673ffffffffffffffffffffffffffffffffffffffff161461160a57600190506116ad565b600073ffffffffffffffffffffffffffffffffffffffff168360010160008473ffffffffffffffffffffffffffffffffffffffff1673ffffffffffffffffffffffffffffffffffffffff16815260200190815260200160002060009054906101000a900473ffffffffffffffffffffffffffffffffffffffff1673ffffffffffffffffffffffffffffffffffffffff16146116a857600190506116ad565b600090505b92915050565b8160000160008273ffffffffffffffffffffffffffffffffffffffff1673ffffffffffffffffffffffffffffffffffffffff16815260200190815260200160002060009054906101000a900473ffffffffffffffffffffffffffffffffffffffff168260000160008460010160008573ffffffffffffffffffffffffffffffffffffffff1673ffffffffffffffffffffffffffffffffffffffff16815260200190815260200160002060009054906101000a900473ffffffffffffffffffffffffffffffffffffffff1673ffffffffffffffffffffffffffffffffffffffff1673ffffffffffffffffffffffffffffffffffffffff16815260200190815260200160002060006101000a81548173ffffffffffffffffffffffffffffffffffffffff021916908373ffffffffffffffffffffffffffffffffffffffff1602179055508160010160008273ffffffffffffffffffffffffffffffffffffffff1673ffffffffffffffffffffffffffffffffffffffff16815260200190815260200160002060009054906101000a900473ffffffffffffffffffffffffffffffffffffffff168260010160008460000160008573ffffffffffffffffffffffffffffffffffffffff1673ffffffffffffffffffffffffffffffffffffffff16815260200190815260200160002060009054906101000a900473ffffffffffffffffffffffffffffffffffffffff1673ffffffffffffffffffffffffffffffffffffffff1673ffffffffffffffffffffffffffffffffffffffff16815260200190815260200160002060006101000a81548173ffffffffffffffffffffffffffffffffffffffff021916908373ffffffffffffffffffffffffffffffffffffffff1602179055508160000160008273ffffffffffffffffffffffffffffffffffffffff1673ffffffffffffffffffffffffffffffffffffffff16815260200190815260200160002060006101000a81549073ffffffffffffffffffffffffffffffffffffffff02191690558160010160008273ffffffffffffffffffffffffffffffffffffffff1673ffffffffffffffffffffffffffffffffffffffff16815260200190815260200160002060006101000a81549073ffffffffffffffffffffffffffffffffffffffff0219169055816002016000815480929190611a14906124bb565b91905055505050565b60008160000160008073ffffffffffffffffffffffffffffffffffffffff1673ffffffffffffffffffffffffffffffffffffffff16815260200190815260200160002060009054906101000a900473ffffffffffffffffffffffffffffffffffffffff1690508160000160008273ffffffffffffffffffffffffffffffffffffffff1673ffffffffffffffffffffffffffffffffffffffff16815260200190815260200160002060009054906101000a900473ffffffffffffffffffffffffffffffffffffffff168260000160008073ffffffffffffffffffffffffffffffffffffffff1673ffffffffffffffffffffffffffffffffffffffff16815260200190815260200160002060006101000a81548173ffffffffffffffffffffffffffffffffffffffff021916908373ffffffffffffffffffffffffffffffffffffffff16021790555060008260010160008460000160008073ffffffffffffffffffffffffffffffffffffffff1673ffffffffffffffffffffffffffffffffffffffff16815260200190815260200160002060009054906101000a900473ffffffffffffffffffffffffffffffffffffffff1673ffffffffffffffffffffffffffffffffffffffff1673ffffffffffffffffffffffffffffffffffffffff16815260200190815260200160002060006101000a81548173ffffffffffffffffffffffffffffffffffffffff021916908373ffffffffffffffffffffffffffffffffffffffff1602179055508160000160008273ffffffffffffffffffffffffffffffffffffffff1673ffffffffffffffffffffffffffffffffffffffff16815260200190815260200160002060006101000a81549073ffffffffffffffffffffffffffffffffffffffff02191690558160010160008273ffffffffffffffffffffffffffffffffffffffff1673ffffffffffffffffffffffffffffffffffffffff16815260200190815260200160002060006101000a81549073ffffffffffffffffffffffffffffffffffffffff0219169055816002016000815480929190611d23906124bb565b91905055505050565b808260000160008460010160008073ffffffffffffffffffffffffffffffffffffffff1673ffffffffffffffffffffffffffffffffffffffff16815260200190815260200160002060009054906101000a900473ffffffffffffffffffffffffffffffffffffffff1673ffffffffffffffffffffffffffffffffffffffff1673ffffffffffffffffffffffffffffffffffffffff16815260200190815260200160002060006101000a81548173ffffffffffffffffffffffffffffffffffffffff021916908373ffffffffffffffffffffffffffffffffffffffff16021790555060008260000160008373ffffffffffffffffffffffffffffffffffffffff1673ffffffffffffffffffffffffffffffffffffffff16815260200190815260200160002060006101000a81548173ffffffffffffffffffffffffffffffffffffffff021916908373ffffffffffffffffffffffffffffffffffffffff1602179055508160010160008073ffffffffffffffffffffffffffffffffffffffff1673ffffffffffffffffffffffffffffffffffffffff16815260200190815260200160002060009054906101000a900473ffffffffffffffffffffffffffffffffffffffff168260010160008373ffffffffffffffffffffffffffffffffffffffff1673ffffffffffffffffffffffffffffffffffffffff16815260200190815260200160002060006101000a81548173ffffffffffffffffffffffffffffffffffffffff021916908373ffffffffffffffffffffffffffffffffffffffff160217905550808260010160008073ffffffffffffffffffffffffffffffffffffffff1673ffffffffffffffffffffffffffffffffffffffff16815260200190815260200160002060006101000a81548173ffffffffffffffffffffffffffffffffffffffff021916908373ffffffffffffffffffffffffffffffffffffffff160217905550816002016000815480929190612004906124e5565b91905055505050565b508054600082559060005260206000209081019061202b919061202e565b50565b5b8082111561204757600081600090555060010161202f565b5090565b600061205e612059846123b5565b612384565b9050808382526020820190508285602086028201111561207d57600080fd5b60005b858110156120ad57816120938882612123565b845260208401935060208301925050600181019050612080565b5050509392505050565b60006120ca6120c5846123e1565b612384565b905080838252602082019050828560208602820111156120e957600080fd5b60005b8581101561211957816120ff888261218c565b8452602084019350602083019250506001810190506120ec565b5050509392505050565b6000813590506121328161258c565b92915050565b600082601f83011261214957600080fd5b813561215984826020860161204b565b91505092915050565b600082601f83011261217357600080fd5b81356121838482602086016120b7565b91505092915050565b60008135905061219b816125a3565b92915050565b6000602082840312156121b357600080fd5b60006121c184828501612123565b91505092915050565b600080604083850312156121dd57600080fd5b600083013567ffffffffffffffff8111156121f757600080fd5b61220385828601612138565b925050602083013567ffffffffffffffff81111561222057600080fd5b61222c85828601612162565b9150509250929050565b60006122428383612266565b60208301905092915050565b600061225a8383612331565b60208301905092915050565b61226f8161247f565b82525050565b60006122808261242d565b61228a818561245d565b93506122958361240d565b8060005b838110156122c65781516122ad8882612236565b97506122b883612443565b925050600181019050612299565b5085935050505092915050565b60006122de82612438565b6122e8818561246e565b93506122f38361241d565b8060005b8381101561232457815161230b888261224e565b975061231683612450565b9250506001810190506122f7565b5085935050505092915050565b61233a816124b1565b82525050565b6000602082019050818103600083015261235a8184612275565b905092915050565b6000602082019050818103600083015261237c81846122d3565b905092915050565b6000604051905081810181811067ffffffffffffffff821117156123ab576123aa61255d565b5b8060405250919050565b600067ffffffffffffffff8211156123d0576123cf61255d565b5b602082029050602081019050919050565b600067ffffffffffffffff8211156123fc576123fb61255d565b5b602082029050602081019050919050565b6000819050602082019050919050565b6000819050602082019050919050565b600081519050919050565b600081519050919050565b6000602082019050919050565b6000602082019050919050565b600082825260208201905092915050565b600082825260208201905092915050565b600061248a82612491565b9050919050565b600073ffffffffffffffffffffffffffffffffffffffff82169050919050565b6000819050919050565b60006124c6826124b1565b915060008214156124da576124d961252e565b5b600182039050919050565b60006124f0826124b1565b91507fffffffffffffffffffffffffffffffffffffffffffffffffffffffffffffffff8214156125235761252261252e565b5b600182019050919050565b7f4e487b7100000000000000000000000000000000000000000000000000000000600052601160045260246000fd5b7f4e487b7100000000000000000000000000000000000000000000000000000000600052604160045260246000fd5b6125958161247f565b81146125a057600080fd5b50565b6125ac816124b1565b81146125b757600080fd5b5056fea26469706673582212204019e74a1035726595e253a63bb26ca055180a732fb83568da835df72c0e3c2564736f6c63430008000033",
  "immutableReferences": {},
  "source": "// SPDX-License-Identifier: MIT\r\npragma solidity >=0.5.1 <0.9.0;\r\n\r\nimport {PointsQ, PointsQueue} from \"./pointsQ.sol\";\r\n\r\nimport {Q, Queue} from \"./queue.sol\";\r\n\r\ncontract PointsBoard {\r\n    // if not use rounds, we have to save the sender\r\n    // or erase the previous points uploaded\r\n    mapping(address => PointsQ) pointsQueue;\r\n    Q recentUpload;\r\n    mapping(address => address[]) assignedTeachers;\r\n    uint256 n_points;\r\n    uint256 n_teachers;\r\n\r\n    constructor(uint256 nPoints, uint256 nTeachers) {\r\n        n_points = nPoints;\r\n        n_teachers = nTeachers;\r\n    }\r\n\r\n    function assignTeachers() public {\r\n        // recently uploaded n_teachers will be teachers\r\n        delete assignedTeachers[msg.sender];\r\n        address teacher = recentUpload.before[address(0)];\r\n        for (uint256 i = 0; i < n_teachers && teacher != address(0); i++){\r\n            assignedTeachers[msg.sender].push(teacher);\r\n            teacher = recentUpload.before[teacher];\r\n        }\r\n    }\r\n\r\n    function seeTeachers() public view returns (address[] memory) {\r\n        return assignedTeachers[msg.sender];\r\n    }\r\n\r\n    function seePoints(address teacher) public view returns (uint256[] memory) {\r\n        uint256 size = pointsQueue[teacher].size;\r\n        uint256[] memory points = new uint256[](size);\r\n        address curr = pointsQueue[teacher].next[address(0)];\r\n        for (uint256 i = 0; i < size; i++) {\r\n            uint256 point = pointsQueue[teacher].value[curr];\r\n            points[i] = point;\r\n            curr = pointsQueue[teacher].next[curr];\r\n        }\r\n        return points;\r\n    }\r\n\r\n    // instead of rounds, how about getting the median of the last n votes?\r\n    function uploadPoints(address[] memory teachers, uint256[] memory points) public {\r\n        address senderAddr = msg.sender;\r\n\r\n        for (uint256 i = 0; i < teachers.length; i++) {\r\n            if (PointsQueue.is_in(pointsQueue[teachers[i]], senderAddr)) {\r\n                PointsQueue.remove(pointsQueue[teachers[i]], senderAddr);\r\n            } else {\r\n                if (pointsQueue[teachers[i]].size == n_points)\r\n                    PointsQueue.pop(pointsQueue[teachers[i]]);\r\n            }\r\n            PointsQueue.insert(pointsQueue[teachers[i]], senderAddr, points[i]);\r\n        }\r\n\r\n        if (Queue.is_in(recentUpload, senderAddr)) {\r\n            Queue.remove(recentUpload, senderAddr);\r\n        } else {\r\n            if (recentUpload.size == n_teachers) Queue.pop(recentUpload);\r\n        }\r\n        Queue.insert(recentUpload, senderAddr);\r\n    }\r\n}\r\n",
  "sourcePath": "C:/Users/User/Development/pytorch/graduate_project/FLwithBC/src/truffle/contracts/pointsBoard.sol",
  "compiler": {
    "name": "solc",
    "version": "0.8.0+commit.c7dfd78e.Emscripten.clang"
  },
  "schemaVersion": "3.3.3",
  "updatedAt": "2021-03-30T07:38:30.216Z",
  "devdoc": {
    "kind": "dev",
    "methods": {},
    "version": 1
  },
  "userdoc": {
    "kind": "user",
    "methods": {},
    "version": 1
  }
}