{
  "contractName": "PointsBoard",
  "abi": [
    {
      "inputs": [
        {
          "internalType": "uint256",
          "name": "nPoints",
          "type": "uint256"
        },
        {
          "internalType": "uint256",
          "name": "nTeachers",
          "type": "uint256"
        }
      ],
      "stateMutability": "nonpayable",
      "type": "constructor"
    },
    {
      "inputs": [],
      "name": "assignTeachers",
      "outputs": [],
      "stateMutability": "nonpayable",
      "type": "function"
    },
    {
      "inputs": [],
      "name": "seeTeachers",
      "outputs": [
        {
          "internalType": "address[]",
          "name": "",
          "type": "address[]"
        }
      ],
      "stateMutability": "view",
      "type": "function"
    },
    {
      "inputs": [
        {
          "internalType": "address",
          "name": "teacher",
          "type": "address"
        }
      ],
      "name": "seePoints",
      "outputs": [
        {
          "internalType": "uint256[]",
          "name": "",
          "type": "uint256[]"
        }
      ],
      "stateMutability": "view",
      "type": "function"
    },
    {
      "inputs": [
        {
          "internalType": "address[]",
          "name": "teachers",
          "type": "address[]"
        },
        {
          "internalType": "uint256[]",
          "name": "points",
          "type": "uint256[]"
        }
      ],
      "name": "uploadPoints",
      "outputs": [],
      "stateMutability": "nonpayable",
      "type": "function"
    }
  ],
  "bytecode": "0x60806040523480156200001157600080fd5b50604051620021eb380380620021eb833981810160405281019062000037919062000135565b8160078190555080600881905550600460085462000056919062000176565b6009819055506200007660016009546200007e60201b620009a71760201c565b505062000278565b8082600401819055506001826003018190555060005b8181101562000119578260010160009080600181540180825580915050600190039060005260206000200160009091909190916101000a81548173ffffffffffffffffffffffffffffffffffffffff021916908373ffffffffffffffffffffffffffffffffffffffff16021790555080806200011090620001e1565b91505062000094565b505050565b6000815190506200012f816200025e565b92915050565b600080604083850312156200014957600080fd5b600062000159858286016200011e565b92505060206200016c858286016200011e565b9150509250929050565b60006200018382620001d7565b91506200019083620001d7565b9250817fffffffffffffffffffffffffffffffffffffffffffffffffffffffffffffffff0483118215151615620001cc57620001cb6200022f565b5b828202905092915050565b6000819050919050565b6000620001ee82620001d7565b91507fffffffffffffffffffffffffffffffffffffffffffffffffffffffffffffffff8214156200022457620002236200022f565b5b600182019050919050565b7f4e487b7100000000000000000000000000000000000000000000000000000000600052601160045260246000fd5b6200026981620001d7565b81146200027557600080fd5b50565b611f6380620002886000396000f3fe608060405234801561001057600080fd5b506004361061004c5760003560e01c806344eafb5714610051578063542321c01461008157806356cefd9f1461009f5780637de3c60a146100bb575b600080fd5b61006b60048036038101906100669190611a22565b6100c5565b6040516100789190611c15565b60405180910390f35b6100896103b8565b6040516100969190611bf3565b60405180910390f35b6100b960048036038101906100b49190611a4b565b610483565b005b6100c361081a565b005b606060008060008473ffffffffffffffffffffffffffffffffffffffff1673ffffffffffffffffffffffffffffffffffffffff16815260200190815260200160002060030154905060008167ffffffffffffffff81111561014f577f4e487b7100000000000000000000000000000000000000000000000000000000600052604160045260246000fd5b60405190808252806020026020018201604052801561017d5781602001602082028036833780820191505090505b50905060008060008673ffffffffffffffffffffffffffffffffffffffff1673ffffffffffffffffffffffffffffffffffffffff16815260200190815260200160002060000160008073ffffffffffffffffffffffffffffffffffffffff1673ffffffffffffffffffffffffffffffffffffffff16815260200190815260200160002060009054906101000a900473ffffffffffffffffffffffffffffffffffffffff16905060005b838110156103ac5760008060008873ffffffffffffffffffffffffffffffffffffffff1673ffffffffffffffffffffffffffffffffffffffff16815260200190815260200160002060020160008473ffffffffffffffffffffffffffffffffffffffff1673ffffffffffffffffffffffffffffffffffffffff168152602001908152602001600020549050808483815181106102eb577f4e487b7100000000000000000000000000000000000000000000000000000000600052603260045260246000fd5b6020026020010181815250506000808873ffffffffffffffffffffffffffffffffffffffff1673ffffffffffffffffffffffffffffffffffffffff16815260200190815260200160002060000160008473ffffffffffffffffffffffffffffffffffffffff1673ffffffffffffffffffffffffffffffffffffffff16815260200190815260200160002060009054906101000a900473ffffffffffffffffffffffffffffffffffffffff1692505080806103a490611dee565b915050610226565b50819350505050919050565b6060600660003373ffffffffffffffffffffffffffffffffffffffff1673ffffffffffffffffffffffffffffffffffffffff16815260200190815260200160002080548060200260200160405190810160405280929190818152602001828054801561047957602002820191906000526020600020905b8160009054906101000a900473ffffffffffffffffffffffffffffffffffffffff1673ffffffffffffffffffffffffffffffffffffffff168152602001906001019080831161042f575b5050505050905090565b600033905060005b835181101561079a5761051b6000808684815181106104d3577f4e487b7100000000000000000000000000000000000000000000000000000000600052603260045260246000fd5b602002602001015173ffffffffffffffffffffffffffffffffffffffff1673ffffffffffffffffffffffffffffffffffffffff16815260200190815260200160002083610a43565b156105ac576105a760008086848151811061055f577f4e487b7100000000000000000000000000000000000000000000000000000000600052603260045260246000fd5b602002602001015173ffffffffffffffffffffffffffffffffffffffff1673ffffffffffffffffffffffffffffffffffffffff16815260200190815260200160002083610b8b565b6106bf565b6007546000808684815181106105eb577f4e487b7100000000000000000000000000000000000000000000000000000000600052603260045260246000fd5b602002602001015173ffffffffffffffffffffffffffffffffffffffff1673ffffffffffffffffffffffffffffffffffffffff1681526020019081526020016000206003015414156106be576106bd600080868481518110610676577f4e487b7100000000000000000000000000000000000000000000000000000000600052603260045260246000fd5b602002602001015173ffffffffffffffffffffffffffffffffffffffff1673ffffffffffffffffffffffffffffffffffffffff168152602001908152602001600020610f3a565b5b5b6107876000808684815181106106fe577f4e487b7100000000000000000000000000000000000000000000000000000000600052603260045260246000fd5b602002602001015173ffffffffffffffffffffffffffffffffffffffff1673ffffffffffffffffffffffffffffffffffffffff1681526020019081526020016000208385848151811061077a577f4e487b7100000000000000000000000000000000000000000000000000000000600052603260045260246000fd5b602002602001015161128e565b808061079290611dee565b91505061048b565b50600160000160008273ffffffffffffffffffffffffffffffffffffffff1673ffffffffffffffffffffffffffffffffffffffff16815260200190815260200160002060009054906101000a900460ff16610815576107f960016115b6565b156108095761080860016115ca565b5b6108146001826116bf565b5b505050565b600660003373ffffffffffffffffffffffffffffffffffffffff1673ffffffffffffffffffffffffffffffffffffffff1681526020019081526020016000206000610865919061188e565b60006009546108726117ce565b61087c9190611e41565b9050600061088b6001836117ff565b905060005b600854811080156108ce5750600073ffffffffffffffffffffffffffffffffffffffff168273ffffffffffffffffffffffffffffffffffffffff1614155b156109a257600660003373ffffffffffffffffffffffffffffffffffffffff1673ffffffffffffffffffffffffffffffffffffffff168152602001908152602001600020829080600181540180825580915050600190039060005260206000200160009091909190916101000a81548173ffffffffffffffffffffffffffffffffffffffff021916908373ffffffffffffffffffffffffffffffffffffffff160217905550602f836109809190611d32565b925061098d6001846117ff565b9150808061099a90611dee565b915050610890565b505050565b8082600401819055506001826003018190555060005b81811015610a3e578260010160009080600181540180825580915050600190039060005260206000200160009091909190916101000a81548173ffffffffffffffffffffffffffffffffffffffff021916908373ffffffffffffffffffffffffffffffffffffffff1602179055508080610a3690611dee565b9150506109bd565b505050565b60008073ffffffffffffffffffffffffffffffffffffffff168360000160008473ffffffffffffffffffffffffffffffffffffffff1673ffffffffffffffffffffffffffffffffffffffff16815260200190815260200160002060009054906101000a900473ffffffffffffffffffffffffffffffffffffffff1673ffffffffffffffffffffffffffffffffffffffff1614610ae25760019050610b85565b600073ffffffffffffffffffffffffffffffffffffffff168360010160008473ffffffffffffffffffffffffffffffffffffffff1673ffffffffffffffffffffffffffffffffffffffff16815260200190815260200160002060009054906101000a900473ffffffffffffffffffffffffffffffffffffffff1673ffffffffffffffffffffffffffffffffffffffff1614610b805760019050610b85565b600090505b92915050565b8160000160008273ffffffffffffffffffffffffffffffffffffffff1673ffffffffffffffffffffffffffffffffffffffff16815260200190815260200160002060009054906101000a900473ffffffffffffffffffffffffffffffffffffffff168260000160008460010160008573ffffffffffffffffffffffffffffffffffffffff1673ffffffffffffffffffffffffffffffffffffffff16815260200190815260200160002060009054906101000a900473ffffffffffffffffffffffffffffffffffffffff1673ffffffffffffffffffffffffffffffffffffffff1673ffffffffffffffffffffffffffffffffffffffff16815260200190815260200160002060006101000a81548173ffffffffffffffffffffffffffffffffffffffff021916908373ffffffffffffffffffffffffffffffffffffffff1602179055508160010160008273ffffffffffffffffffffffffffffffffffffffff1673ffffffffffffffffffffffffffffffffffffffff16815260200190815260200160002060009054906101000a900473ffffffffffffffffffffffffffffffffffffffff168260010160008460000160008573ffffffffffffffffffffffffffffffffffffffff1673ffffffffffffffffffffffffffffffffffffffff16815260200190815260200160002060009054906101000a900473ffffffffffffffffffffffffffffffffffffffff1673ffffffffffffffffffffffffffffffffffffffff1673ffffffffffffffffffffffffffffffffffffffff16815260200190815260200160002060006101000a81548173ffffffffffffffffffffffffffffffffffffffff021916908373ffffffffffffffffffffffffffffffffffffffff1602179055508160000160008273ffffffffffffffffffffffffffffffffffffffff1673ffffffffffffffffffffffffffffffffffffffff16815260200190815260200160002060006101000a81549073ffffffffffffffffffffffffffffffffffffffff02191690558160010160008273ffffffffffffffffffffffffffffffffffffffff1673ffffffffffffffffffffffffffffffffffffffff16815260200190815260200160002060006101000a81549073ffffffffffffffffffffffffffffffffffffffff02191690558160020160008273ffffffffffffffffffffffffffffffffffffffff1673ffffffffffffffffffffffffffffffffffffffff16815260200190815260200160002060009055816003016000815480929190610f3190611dc4565b91905055505050565b60008160000160008073ffffffffffffffffffffffffffffffffffffffff1673ffffffffffffffffffffffffffffffffffffffff16815260200190815260200160002060009054906101000a900473ffffffffffffffffffffffffffffffffffffffff1690508160000160008273ffffffffffffffffffffffffffffffffffffffff1673ffffffffffffffffffffffffffffffffffffffff16815260200190815260200160002060009054906101000a900473ffffffffffffffffffffffffffffffffffffffff168260000160008073ffffffffffffffffffffffffffffffffffffffff1673ffffffffffffffffffffffffffffffffffffffff16815260200190815260200160002060006101000a81548173ffffffffffffffffffffffffffffffffffffffff021916908373ffffffffffffffffffffffffffffffffffffffff16021790555060008260010160008460000160008073ffffffffffffffffffffffffffffffffffffffff1673ffffffffffffffffffffffffffffffffffffffff16815260200190815260200160002060009054906101000a900473ffffffffffffffffffffffffffffffffffffffff1673ffffffffffffffffffffffffffffffffffffffff1673ffffffffffffffffffffffffffffffffffffffff16815260200190815260200160002060006101000a81548173ffffffffffffffffffffffffffffffffffffffff021916908373ffffffffffffffffffffffffffffffffffffffff1602179055508160000160008273ffffffffffffffffffffffffffffffffffffffff1673ffffffffffffffffffffffffffffffffffffffff16815260200190815260200160002060006101000a81549073ffffffffffffffffffffffffffffffffffffffff02191690558160010160008273ffffffffffffffffffffffffffffffffffffffff1673ffffffffffffffffffffffffffffffffffffffff16815260200190815260200160002060006101000a81549073ffffffffffffffffffffffffffffffffffffffff02191690558160020160008273ffffffffffffffffffffffffffffffffffffffff1673ffffffffffffffffffffffffffffffffffffffff1681526020019081526020016000206000905581600301600081548092919061128590611dc4565b91905055505050565b808360020160008473ffffffffffffffffffffffffffffffffffffffff1673ffffffffffffffffffffffffffffffffffffffff16815260200190815260200160002081905550818360000160008560010160008073ffffffffffffffffffffffffffffffffffffffff1673ffffffffffffffffffffffffffffffffffffffff16815260200190815260200160002060009054906101000a900473ffffffffffffffffffffffffffffffffffffffff1673ffffffffffffffffffffffffffffffffffffffff1673ffffffffffffffffffffffffffffffffffffffff16815260200190815260200160002060006101000a81548173ffffffffffffffffffffffffffffffffffffffff021916908373ffffffffffffffffffffffffffffffffffffffff16021790555060008360000160008473ffffffffffffffffffffffffffffffffffffffff1673ffffffffffffffffffffffffffffffffffffffff16815260200190815260200160002060006101000a81548173ffffffffffffffffffffffffffffffffffffffff021916908373ffffffffffffffffffffffffffffffffffffffff1602179055508260010160008073ffffffffffffffffffffffffffffffffffffffff1673ffffffffffffffffffffffffffffffffffffffff16815260200190815260200160002060009054906101000a900473ffffffffffffffffffffffffffffffffffffffff168360010160008473ffffffffffffffffffffffffffffffffffffffff1673ffffffffffffffffffffffffffffffffffffffff16815260200190815260200160002060006101000a81548173ffffffffffffffffffffffffffffffffffffffff021916908373ffffffffffffffffffffffffffffffffffffffff160217905550818360010160008073ffffffffffffffffffffffffffffffffffffffff1673ffffffffffffffffffffffffffffffffffffffff16815260200190815260200160002060006101000a81548173ffffffffffffffffffffffffffffffffffffffff021916908373ffffffffffffffffffffffffffffffffffffffff1602179055508260030160008154809291906115ac90611dee565b9190505550505050565b600081600301548260020154149050919050565b60008160010182600201548154811061160c577f4e487b7100000000000000000000000000000000000000000000000000000000600052603260045260246000fd5b9060005260206000200160009054906101000a900473ffffffffffffffffffffffffffffffffffffffff16905060008260000160008373ffffffffffffffffffffffffffffffffffffffff1673ffffffffffffffffffffffffffffffffffffffff16815260200190815260200160002060006101000a81548160ff0219169083151502179055508160040154600183600201546116a99190611d32565b6116b39190611e41565b82600201819055505050565b8160040154600183600301546116d59190611d32565b6116df9190611e41565b82600301819055508082600101836003015481548110611728577f4e487b7100000000000000000000000000000000000000000000000000000000600052603260045260246000fd5b9060005260206000200160006101000a81548173ffffffffffffffffffffffffffffffffffffffff021916908373ffffffffffffffffffffffffffffffffffffffff16021790555060018260000160008373ffffffffffffffffffffffffffffffffffffffff1673ffffffffffffffffffffffffffffffffffffffff16815260200190815260200160002060006101000a81548160ff0219169083151502179055505050565b6000426040516020016117e19190611bd8565b6040516020818303038152906040528051906020012060001c905090565b600082600101836004015483856002015461181a9190611d32565b6118249190611e41565b8154811061185b577f4e487b7100000000000000000000000000000000000000000000000000000000600052603260045260246000fd5b9060005260206000200160009054906101000a900473ffffffffffffffffffffffffffffffffffffffff16905092915050565b50805460008255906000526020600020908101906118ac91906118af565b50565b5b808211156118c85760008160009055506001016118b0565b5090565b60006118df6118da84611c68565b611c37565b905080838252602082019050828560208602820111156118fe57600080fd5b60005b8581101561192e578161191488826119a4565b845260208401935060208301925050600181019050611901565b5050509392505050565b600061194b61194684611c94565b611c37565b9050808382526020820190508285602086028201111561196a57600080fd5b60005b8581101561199a57816119808882611a0d565b84526020840193506020830192505060018101905061196d565b5050509392505050565b6000813590506119b381611eff565b92915050565b600082601f8301126119ca57600080fd5b81356119da8482602086016118cc565b91505092915050565b600082601f8301126119f457600080fd5b8135611a04848260208601611938565b91505092915050565b600081359050611a1c81611f16565b92915050565b600060208284031215611a3457600080fd5b6000611a42848285016119a4565b91505092915050565b60008060408385031215611a5e57600080fd5b600083013567ffffffffffffffff811115611a7857600080fd5b611a84858286016119b9565b925050602083013567ffffffffffffffff811115611aa157600080fd5b611aad858286016119e3565b9150509250929050565b6000611ac38383611ae7565b60208301905092915050565b6000611adb8383611bb2565b60208301905092915050565b611af081611d88565b82525050565b6000611b0182611ce0565b611b0b8185611d10565b9350611b1683611cc0565b8060005b83811015611b47578151611b2e8882611ab7565b9750611b3983611cf6565b925050600181019050611b1a565b5085935050505092915050565b6000611b5f82611ceb565b611b698185611d21565b9350611b7483611cd0565b8060005b83811015611ba5578151611b8c8882611acf565b9750611b9783611d03565b925050600181019050611b78565b5085935050505092915050565b611bbb81611dba565b82525050565b611bd2611bcd82611dba565b611e37565b82525050565b6000611be48284611bc1565b60208201915081905092915050565b60006020820190508181036000830152611c0d8184611af6565b905092915050565b60006020820190508181036000830152611c2f8184611b54565b905092915050565b6000604051905081810181811067ffffffffffffffff82111715611c5e57611c5d611ed0565b5b8060405250919050565b600067ffffffffffffffff821115611c8357611c82611ed0565b5b602082029050602081019050919050565b600067ffffffffffffffff821115611caf57611cae611ed0565b5b602082029050602081019050919050565b6000819050602082019050919050565b6000819050602082019050919050565b600081519050919050565b600081519050919050565b6000602082019050919050565b6000602082019050919050565b600082825260208201905092915050565b600082825260208201905092915050565b6000611d3d82611dba565b9150611d4883611dba565b9250827fffffffffffffffffffffffffffffffffffffffffffffffffffffffffffffffff03821115611d7d57611d7c611e72565b5b828201905092915050565b6000611d9382611d9a565b9050919050565b600073ffffffffffffffffffffffffffffffffffffffff82169050919050565b6000819050919050565b6000611dcf82611dba565b91506000821415611de357611de2611e72565b5b600182039050919050565b6000611df982611dba565b91507fffffffffffffffffffffffffffffffffffffffffffffffffffffffffffffffff821415611e2c57611e2b611e72565b5b600182019050919050565b6000819050919050565b6000611e4c82611dba565b9150611e5783611dba565b925082611e6757611e66611ea1565b5b828206905092915050565b7f4e487b7100000000000000000000000000000000000000000000000000000000600052601160045260246000fd5b7f4e487b7100000000000000000000000000000000000000000000000000000000600052601260045260246000fd5b7f4e487b7100000000000000000000000000000000000000000000000000000000600052604160045260246000fd5b611f0881611d88565b8114611f1357600080fd5b50565b611f1f81611dba565b8114611f2a57600080fd5b5056fea2646970667358221220467bfb9586a5fa1ff193e6b71c7bfa93e7fc081c2e9cd4c3d1ef77fe6482b3a464736f6c63430008000033",
  "immutableReferences": {},
  "source": "// SPDX-License-Identifier: MIT\r\npragma solidity >=0.5.1 <0.9.0;\r\n\r\nimport {PointsQ, PointsQueue} from \"./pointsQ.sol\";\r\n\r\nimport {Q, Queue} from \"./queue.sol\";\r\n\r\ncontract PointsBoard {\r\n    // if not use rounds, we have to save the sender\r\n    // or erase the previous points uploaded\r\n    mapping(address => PointsQ) pointsQueue;\r\n    Q recentUpload;\r\n    mapping(address => address[]) assignedTeachers;\r\n    uint256 n_points;\r\n    uint256 n_teachers;\r\n    uint256 qSize;\r\n\r\n    constructor(uint256 nPoints, uint256 nTeachers) {\r\n        n_points = nPoints;\r\n        n_teachers = nTeachers;\r\n        qSize = n_teachers * 4;\r\n        Queue.initialize(recentUpload, qSize);\r\n    }\r\n\r\n    function randomNumber() internal view returns (uint256) {\r\n        return uint256(keccak256(abi.encodePacked(block.timestamp)));\r\n    }\r\n\r\n    function assignTeachers() public {\r\n        // recently uploaded n_teachers will be teachers\r\n        delete assignedTeachers[msg.sender];\r\n        uint256 randIdx = randomNumber() % qSize;\r\n        address teacher = Queue.byIndex(recentUpload, randIdx);\r\n        for (uint256 i = 0; i < n_teachers && teacher != address(0); i++) {\r\n            assignedTeachers[msg.sender].push(teacher);\r\n            randIdx = randIdx + 47;\r\n            teacher = Queue.byIndex(recentUpload, randIdx);\r\n        }\r\n    }\r\n\r\n    function seeTeachers() public view returns (address[] memory) {\r\n        return assignedTeachers[msg.sender];\r\n    }\r\n\r\n    function seePoints(address teacher) public view returns (uint256[] memory) {\r\n        uint256 size = pointsQueue[teacher].size;\r\n        uint256[] memory points = new uint256[](size);\r\n        address curr = pointsQueue[teacher].next[address(0)];\r\n        for (uint256 i = 0; i < size; i++) {\r\n            uint256 point = pointsQueue[teacher].value[curr];\r\n            points[i] = point;\r\n            curr = pointsQueue[teacher].next[curr];\r\n        }\r\n        return points;\r\n    }\r\n\r\n    // instead of rounds, how about getting the median of the last n votes?\r\n    function uploadPoints(address[] memory teachers, uint256[] memory points)\r\n        public\r\n    {\r\n        address senderAddr = msg.sender;\r\n\r\n        for (uint256 i = 0; i < teachers.length; i++) {\r\n            if (PointsQueue.is_in(pointsQueue[teachers[i]], senderAddr)) {\r\n                PointsQueue.remove(pointsQueue[teachers[i]], senderAddr);\r\n            } else {\r\n                if (pointsQueue[teachers[i]].size == n_points)\r\n                    PointsQueue.pop(pointsQueue[teachers[i]]);\r\n            }\r\n            PointsQueue.insert(pointsQueue[teachers[i]], senderAddr, points[i]);\r\n        }\r\n\r\n        if (!recentUpload.isIn[senderAddr]) {\r\n            if (Queue.isFull(recentUpload)) Queue.pop(recentUpload);\r\n            Queue.insert(recentUpload, senderAddr);\r\n        }\r\n    }\r\n}\r\n",
  "sourcePath": "C:/Users/User/Development/pytorch/graduate_project/FLwithBC/src/truffle/contracts/pointsBoard.sol",
  "compiler": {
    "name": "solc",
    "version": "0.8.0+commit.c7dfd78e.Emscripten.clang"
  },
  "schemaVersion": "3.3.3",
  "updatedAt": "2021-03-30T11:25:45.966Z",
  "devdoc": {
    "kind": "dev",
    "methods": {},
    "version": 1
  },
  "userdoc": {
    "kind": "user",
    "methods": {},
    "version": 1
  }
}