{
  "contractName": "PointsBoard",
  "abi": [
    {
      "inputs": [
        {
          "internalType": "uint256",
          "name": "numClients",
          "type": "uint256"
        }
      ],
      "stateMutability": "nonpayable",
      "type": "constructor"
    },
    {
      "inputs": [
        {
          "internalType": "address[]",
          "name": "teachers",
          "type": "address[]"
        },
        {
          "internalType": "uint256[]",
          "name": "points",
          "type": "uint256[]"
        }
      ],
      "name": "upload",
      "outputs": [],
      "stateMutability": "nonpayable",
      "type": "function"
    },
    {
      "inputs": [
        {
          "internalType": "address",
          "name": "teacherAddr",
          "type": "address"
        }
      ],
      "name": "seeMedianPoint",
      "outputs": [
        {
          "internalType": "uint256",
          "name": "",
          "type": "uint256"
        }
      ],
      "stateMutability": "view",
      "type": "function"
    }
  ],
  "bytecode": "0x608060405234801561001057600080fd5b50604051611c17380380611c178339818101604052602081101561003357600080fd5b81019080805190602001909291905050508060008190555050611bbc8061005b6000396000f3fe608060405234801561001057600080fd5b50600436106100365760003560e01c8063743b8d871461003b578063eddfbc6f14610187575b600080fd5b6101856004803603604081101561005157600080fd5b810190808035906020019064010000000081111561006e57600080fd5b82018360208201111561008057600080fd5b803590602001918460208302840111640100000000831117156100a257600080fd5b919080806020026020016040519081016040528093929190818152602001838360200280828437600081840152601f19601f8201169050808301925050505050505091929192908035906020019064010000000081111561010257600080fd5b82018360208201111561011457600080fd5b8035906020019184602083028401116401000000008311171561013657600080fd5b919080806020026020016040519081016040528093929190818152602001838360200280828437600081840152601f19601f8201169050808301925050505050505091929192905050506101df565b005b6101c96004803603602081101561019d57600080fd5b81019080803573ffffffffffffffffffffffffffffffffffffffff169060200190929190505050610572565b6040518082815260200191505060405180910390f35b600033905060008090505b835181101561056c576003600085838151811061020357fe5b602002602001015173ffffffffffffffffffffffffffffffffffffffff1673ffffffffffffffffffffffffffffffffffffffff16815260200190815260200160002060009054906101000a900460ff166103ff5760016003600086848151811061026957fe5b602002602001015173ffffffffffffffffffffffffffffffffffffffff1673ffffffffffffffffffffffffffffffffffffffff16815260200190815260200160002060006101000a81548160ff0219169083151502179055506000546040519080825280602002602001820160405280156102f35781602001602082028038833980820191505090505b506001600086848151811061030457fe5b602002602001015173ffffffffffffffffffffffffffffffffffffffff1673ffffffffffffffffffffffffffffffffffffffff168152602001908152602001600020600001600001908051906020019061035f929190611ab9565b506000546040519080825280602002602001820160405280156103915781602001602082028038833980820191505090505b50600160008684815181106103a257fe5b602002602001015173ffffffffffffffffffffffffffffffffffffffff1673ffffffffffffffffffffffffffffffffffffffff16815260200190815260200160002060020160000190805190602001906103fd929190611ab9565b505b61045a6001600086848151811061041257fe5b602002602001015173ffffffffffffffffffffffffffffffffffffffff1673ffffffffffffffffffffffffffffffffffffffff1681526020019081526020016000208361061e565b82818151811061046657fe5b60200260200101516001600086848151811061047e57fe5b602002602001015173ffffffffffffffffffffffffffffffffffffffff1673ffffffffffffffffffffffffffffffffffffffff16815260200190815260200160002060050160008473ffffffffffffffffffffffffffffffffffffffff1673ffffffffffffffffffffffffffffffffffffffff1681526020019081526020016000208190555061055f6001600086848151811061051757fe5b602002602001015173ffffffffffffffffffffffffffffffffffffffff1673ffffffffffffffffffffffffffffffffffffffff168152602001908152602001600020836106df565b80806001019150506101ea565b50505050565b6000600360008373ffffffffffffffffffffffffffffffffffffffff1673ffffffffffffffffffffffffffffffffffffffff16815260200190815260200160002060009054906101000a900460ff16156106145761060d600160008473ffffffffffffffffffffffffffffffffffffffff1673ffffffffffffffffffffffffffffffffffffffff168152602001908152602001600020610887565b9050610619565b600090505b919050565b60008260040160008373ffffffffffffffffffffffffffffffffffffffff1673ffffffffffffffffffffffffffffffffffffffff168152602001908152602001600020549050600081141561067357506106db565b60016002828161067f57fe5b0614156106b05760006002828161069257fe5b0490506106aa846002018286600501876004016108dd565b506106d9565b60006001600283816106be57fe5b040390506106d784600001828660050187600401610eac565b505b505b5050565b60008260050160008373ffffffffffffffffffffffffffffffffffffffff1673ffffffffffffffffffffffffffffffffffffffff16815260200190815260200160002054905060008360000160010154141561074f5761074a8360000183856005018660040161147b565b610882565b8083600501600061076286600001611756565b73ffffffffffffffffffffffffffffffffffffffff1673ffffffffffffffffffffffffffffffffffffffff1681526020019081526020016000205411156107bd576107b88360000183856005018660040161147b565b6107d3565b6107d28360020183856005018660040161179a565b5b60018360020160010154018360000160010154111561082d5760006107fa84600001611756565b90506108128460000160008660050187600401610eac565b6108278460020182866005018760040161179a565b50610881565b82600201600101548360000160010154101561088057600061085184600201611a75565b905061086984600201600086600501876004016108dd565b61087e8460000182866005018760040161147b565b505b5b5b505050565b600081600501600061089b84600001611756565b73ffffffffffffffffffffffffffffffffffffffff1673ffffffffffffffffffffffffffffffffffffffff168152602001908152602001600020549050919050565b6000846000016001866001015403815481106108f557fe5b9060005260206000200160009054906101000a900473ffffffffffffffffffffffffffffffffffffffff16905060008360008373ffffffffffffffffffffffffffffffffffffffff1673ffffffffffffffffffffffffffffffffffffffff16815260200190815260200160002054905085600101600081548092919060019003919050555060008590506000600187600202019050600060028860020201905060005b8960010154821015610c5c578760008b60000184815481106109b657fe5b9060005260206000200160009054906101000a900473ffffffffffffffffffffffffffffffffffffffff1673ffffffffffffffffffffffffffffffffffffffff1673ffffffffffffffffffffffffffffffffffffffff168152602001908152602001600020548860008c6000018681548110610a2e57fe5b9060005260206000200160009054906101000a900473ffffffffffffffffffffffffffffffffffffffff1673ffffffffffffffffffffffffffffffffffffffff1673ffffffffffffffffffffffffffffffffffffffff168152602001908152602001600020541015610aa257829050610aa6565b8190505b8760008b6000018381548110610ab857fe5b9060005260206000200160009054906101000a900473ffffffffffffffffffffffffffffffffffffffff1673ffffffffffffffffffffffffffffffffffffffff1673ffffffffffffffffffffffffffffffffffffffff16815260200190815260200160002054851115610c5257896000018181548110610b3457fe5b9060005260206000200160009054906101000a900473ffffffffffffffffffffffffffffffffffffffff168a6000018581548110610b6e57fe5b9060005260206000200160006101000a81548173ffffffffffffffffffffffffffffffffffffffff021916908373ffffffffffffffffffffffffffffffffffffffff160217905550600184600202018760008c6000018481548110610bcf57fe5b9060005260206000200160009054906101000a900473ffffffffffffffffffffffffffffffffffffffff1673ffffffffffffffffffffffffffffffffffffffff1673ffffffffffffffffffffffffffffffffffffffff16815260200190815260200160002081905550809350600184600202019250600284600202019150610c57565b610c5c565b610998565b8960010154831015610dff578760008b6000018581548110610c7a57fe5b9060005260206000200160009054906101000a900473ffffffffffffffffffffffffffffffffffffffff1673ffffffffffffffffffffffffffffffffffffffff1673ffffffffffffffffffffffffffffffffffffffff16815260200190815260200160002054851115610dfe57896000018381548110610cf657fe5b9060005260206000200160009054906101000a900473ffffffffffffffffffffffffffffffffffffffff168a6000018581548110610d3057fe5b9060005260206000200160006101000a81548173ffffffffffffffffffffffffffffffffffffffff021916908373ffffffffffffffffffffffffffffffffffffffff160217905550600184600202018760008c6000018681548110610d9157fe5b9060005260206000200160009054906101000a900473ffffffffffffffffffffffffffffffffffffffff1673ffffffffffffffffffffffffffffffffffffffff1673ffffffffffffffffffffffffffffffffffffffff168152602001908152602001600020819055508293505b5b858a6000018581548110610e0f57fe5b9060005260206000200160006101000a81548173ffffffffffffffffffffffffffffffffffffffff021916908373ffffffffffffffffffffffffffffffffffffffff160217905550600184600202018760008873ffffffffffffffffffffffffffffffffffffffff1673ffffffffffffffffffffffffffffffffffffffff1681526020019081526020016000208190555050505050505050505050565b600084600001600186600101540381548110610ec457fe5b9060005260206000200160009054906101000a900473ffffffffffffffffffffffffffffffffffffffff16905060008360008373ffffffffffffffffffffffffffffffffffffffff1673ffffffffffffffffffffffffffffffffffffffff16815260200190815260200160002054905085600101600081548092919060019003919050555060008590506000600187600202019050600060028860020201905060005b896001015482101561122b578760008b6000018481548110610f8557fe5b9060005260206000200160009054906101000a900473ffffffffffffffffffffffffffffffffffffffff1673ffffffffffffffffffffffffffffffffffffffff1673ffffffffffffffffffffffffffffffffffffffff168152602001908152602001600020548860008c6000018681548110610ffd57fe5b9060005260206000200160009054906101000a900473ffffffffffffffffffffffffffffffffffffffff1673ffffffffffffffffffffffffffffffffffffffff1673ffffffffffffffffffffffffffffffffffffffff16815260200190815260200160002054111561107157829050611075565b8190505b8760008b600001838154811061108757fe5b9060005260206000200160009054906101000a900473ffffffffffffffffffffffffffffffffffffffff1673ffffffffffffffffffffffffffffffffffffffff1673ffffffffffffffffffffffffffffffffffffffff168152602001908152602001600020548510156112215789600001818154811061110357fe5b9060005260206000200160009054906101000a900473ffffffffffffffffffffffffffffffffffffffff168a600001858154811061113d57fe5b9060005260206000200160006101000a81548173ffffffffffffffffffffffffffffffffffffffff021916908373ffffffffffffffffffffffffffffffffffffffff160217905550600284600202018760008c600001848154811061119e57fe5b9060005260206000200160009054906101000a900473ffffffffffffffffffffffffffffffffffffffff1673ffffffffffffffffffffffffffffffffffffffff1673ffffffffffffffffffffffffffffffffffffffff16815260200190815260200160002081905550809350600184600202019250600284600202019150611226565b61122b565b610f67565b89600101548310156113ce578760008b600001858154811061124957fe5b9060005260206000200160009054906101000a900473ffffffffffffffffffffffffffffffffffffffff1673ffffffffffffffffffffffffffffffffffffffff1673ffffffffffffffffffffffffffffffffffffffff168152602001908152602001600020548510156113cd578960000183815481106112c557fe5b9060005260206000200160009054906101000a900473ffffffffffffffffffffffffffffffffffffffff168a60000185815481106112ff57fe5b9060005260206000200160006101000a81548173ffffffffffffffffffffffffffffffffffffffff021916908373ffffffffffffffffffffffffffffffffffffffff160217905550600284600202018760008c600001868154811061136057fe5b9060005260206000200160009054906101000a900473ffffffffffffffffffffffffffffffffffffffff1673ffffffffffffffffffffffffffffffffffffffff1673ffffffffffffffffffffffffffffffffffffffff168152602001908152602001600020819055508293505b5b858a60000185815481106113de57fe5b9060005260206000200160006101000a81548173ffffffffffffffffffffffffffffffffffffffff021916908373ffffffffffffffffffffffffffffffffffffffff160217905550600284600202018760008873ffffffffffffffffffffffffffffffffffffffff1673ffffffffffffffffffffffffffffffffffffffff1681526020019081526020016000208190555050505050505050505050565b60008260008573ffffffffffffffffffffffffffffffffffffffff1673ffffffffffffffffffffffffffffffffffffffff16815260200190815260200160002054905084600101600081548092919060010191905055506000600186600101540390505b60008111801561156f575083600087600001600284816114fb57fe5b048154811061150657fe5b9060005260206000200160009054906101000a900473ffffffffffffffffffffffffffffffffffffffff1673ffffffffffffffffffffffffffffffffffffffff1673ffffffffffffffffffffffffffffffffffffffff1681526020019081526020016000205482115b156116ad57856000016002828161158257fe5b048154811061158d57fe5b9060005260206000200160009054906101000a900473ffffffffffffffffffffffffffffffffffffffff168660000182815481106115c757fe5b9060005260206000200160006101000a81548173ffffffffffffffffffffffffffffffffffffffff021916908373ffffffffffffffffffffffffffffffffffffffff16021790555060028160020201836000886000016002858161162757fe5b048154811061163257fe5b9060005260206000200160009054906101000a900473ffffffffffffffffffffffffffffffffffffffff1673ffffffffffffffffffffffffffffffffffffffff1673ffffffffffffffffffffffffffffffffffffffff16815260200190815260200160002081905550600281816116a557fe5b0490506114df565b848660000182815481106116bd57fe5b9060005260206000200160006101000a81548173ffffffffffffffffffffffffffffffffffffffff021916908373ffffffffffffffffffffffffffffffffffffffff160217905550600281600202018360008773ffffffffffffffffffffffffffffffffffffffff1673ffffffffffffffffffffffffffffffffffffffff16815260200190815260200160002081905550505050505050565b60008160000160008154811061176857fe5b9060005260206000200160009054906101000a900473ffffffffffffffffffffffffffffffffffffffff169050919050565b60008260008573ffffffffffffffffffffffffffffffffffffffff1673ffffffffffffffffffffffffffffffffffffffff16815260200190815260200160002054905084600101600081548092919060010191905055506000600186600101540390505b60008111801561188e5750836000876000016002848161181a57fe5b048154811061182557fe5b9060005260206000200160009054906101000a900473ffffffffffffffffffffffffffffffffffffffff1673ffffffffffffffffffffffffffffffffffffffff1673ffffffffffffffffffffffffffffffffffffffff1681526020019081526020016000205482105b156119cc5785600001600282816118a157fe5b04815481106118ac57fe5b9060005260206000200160009054906101000a900473ffffffffffffffffffffffffffffffffffffffff168660000182815481106118e657fe5b9060005260206000200160006101000a81548173ffffffffffffffffffffffffffffffffffffffff021916908373ffffffffffffffffffffffffffffffffffffffff16021790555060018160020201836000886000016002858161194657fe5b048154811061195157fe5b9060005260206000200160009054906101000a900473ffffffffffffffffffffffffffffffffffffffff1673ffffffffffffffffffffffffffffffffffffffff1673ffffffffffffffffffffffffffffffffffffffff16815260200190815260200160002081905550600281816119c457fe5b0490506117fe565b848660000182815481106119dc57fe5b9060005260206000200160006101000a81548173ffffffffffffffffffffffffffffffffffffffff021916908373ffffffffffffffffffffffffffffffffffffffff160217905550600181600202018360008773ffffffffffffffffffffffffffffffffffffffff1673ffffffffffffffffffffffffffffffffffffffff16815260200190815260200160002081905550505050505050565b600081600001600081548110611a8757fe5b9060005260206000200160009054906101000a900473ffffffffffffffffffffffffffffffffffffffff169050919050565b828054828255906000526020600020908101928215611b32579160200282015b82811115611b315782518260006101000a81548173ffffffffffffffffffffffffffffffffffffffff021916908373ffffffffffffffffffffffffffffffffffffffff16021790555091602001919060010190611ad9565b5b509050611b3f9190611b43565b5090565b611b8391905b80821115611b7f57600081816101000a81549073ffffffffffffffffffffffffffffffffffffffff021916905550600101611b49565b5090565b9056fea2646970667358221220bbb06395641a075eb4f31ea6fda246f7a15a778364b3f7ed49f272739d10504364736f6c63430006000033",
  "source": "// SPDX-License-Identifier: MIT\r\npragma solidity >=0.5.1 <0.9.0;\r\n\r\nimport \"./heap.sol\";\r\nimport \"./median_heap.sol\";\r\n\r\ncontract PointsBoard {\r\n    // if not use rounds, we have to save the sender\r\n    // or erase the previous points uploaded\r\n    using MinHeap for uint256;\r\n    using MaxHeap for uint256;\r\n    using MedianHeap for uint256;\r\n\r\n    uint256 n_clients;\r\n\r\n    mapping(address => MedHeap) pointsHeap;\r\n    mapping(address => uint256) medianPoints;\r\n    mapping(address => bool) heapMade;\r\n    \r\n    constructor(uint256 numClients) public {\r\n        n_clients = numClients;\r\n    }\r\n\r\n    // instead of rounds, how about getting the median of the last n votes?\r\n    function upload(address[] memory teachers, uint256[] memory points) public {\r\n        address senderAddr = msg.sender;\r\n        \r\n        for (uint256 i = 0; i < teachers.length; i++) {\r\n            if (!heapMade[teachers[i]]){\r\n                heapMade[teachers[i]] = true;\r\n                pointsHeap[teachers[i]].maxHeap.data = new address[](n_clients);\r\n                pointsHeap[teachers[i]].minHeap.data = new address[](n_clients);\r\n            }\r\n            MedianHeap.remove(pointsHeap[teachers[i]], senderAddr);\r\n            pointsHeap[teachers[i]].values[senderAddr] = points[i];\r\n            MedianHeap.insert(pointsHeap[teachers[i]], senderAddr);\r\n            \r\n        }\r\n    }\r\n\r\n    function seeMedianPoint(address teacherAddr) public view returns (uint256) {\r\n        if (heapMade[teacherAddr]) {\r\n            return MedianHeap.get_median(pointsHeap[teacherAddr]);\r\n        } else {\r\n            return 0;\r\n        }\r\n    }\r\n}",
  "sourcePath": "C:/Users/User/Development/pytorch/graduate_project/FLwithBC-just-ledger/src/truffle/contracts/pointsBoard.sol",
  "compiler": {
    "name": "solc",
    "version": "0.6.0+commit.26b70077.Emscripten.clang"
  },
  "schemaVersion": "3.3.3",
  "updatedAt": "2021-02-21T05:00:45.525Z",
  "devdoc": {
    "methods": {}
  },
  "userdoc": {
    "methods": {}
  }
}