{
  "contractName": "Rank",
  "abi": [
    {
      "inputs": [
        {
          "internalType": "uint256",
          "name": "num_clients",
          "type": "uint256"
        }
      ],
      "stateMutability": "nonpayable",
      "type": "constructor"
    },
    {
      "inputs": [],
      "name": "reset",
      "outputs": [],
      "stateMutability": "nonpayable",
      "type": "function"
    },
    {
      "inputs": [
        {
          "internalType": "uint256[]",
          "name": "_points1",
          "type": "uint256[]"
        },
        {
          "internalType": "uint256[]",
          "name": "_points2",
          "type": "uint256[]"
        }
      ],
      "name": "upload",
      "outputs": [],
      "stateMutability": "nonpayable",
      "type": "function"
    },
    {
      "inputs": [],
      "name": "seeRank1",
      "outputs": [
        {
          "internalType": "uint256[]",
          "name": "",
          "type": "uint256[]"
        }
      ],
      "stateMutability": "view",
      "type": "function"
    },
    {
      "inputs": [],
      "name": "seeRank2",
      "outputs": [
        {
          "internalType": "uint256[]",
          "name": "",
          "type": "uint256[]"
        }
      ],
      "stateMutability": "view",
      "type": "function"
    }
  ],
  "bytecode": "0x60806040523480156200001157600080fd5b506040516200118338038062001183833981810160405260208110156200003757600080fd5b810190808051906020019092919050505080600081905550600060018190555060008090505b600054811015620002e657600260405180604001604052806040518060400160405280600054604051908082528060200260200182016040528015620000b25781602001602082028036833780820191505090505b508152602001600081525081526020016040518060400160405280600054604051908082528060200260200182016040528015620000ff5781602001602082028036833780820191505090505b5081526020016000815250815250908060018154018082558091505060019003906000526020600020906004020160009091909190915060008201518160000160008201518160000190805190602001906200015d929190620004ae565b50602082015181600101555050602082015181600201600082015181600001908051906020019062000191929190620004ae565b506020820151816001015550505050600360405180604001604052806040518060400160405280600054604051908082528060200260200182016040528015620001ea5781602001602082028036833780820191505090505b508152602001600081525081526020016040518060400160405280600054604051908082528060200260200182016040528015620002375781602001602082028036833780820191505090505b50815260200160008152508152509080600181540180825580915050600190039060005260206000209060040201600090919091909150600082015181600001600082015181600001908051906020019062000295929190620004ae565b506020820151816001015550506020820151816002016000820151816000019080519060200190620002c9929190620004ae565b50602082015181600101555050505080806001019150506200005d565b50600054604051908082528060200260200182016040528015620003195781602001602082028036833780820191505090505b50600490805190602001906200033192919062000500565b50600054604051908082528060200260200182016040528015620003645781602001602082028036833780820191505090505b50600590805190602001906200037c92919062000500565b50600054604051908082528060200260200182016040528015620003af5781602001602082028036833780820191505090505b5060069080519060200190620003c792919062000500565b50600054604051908082528060200260200182016040528015620003fa5781602001602082028036833780820191505090505b50600790805190602001906200041292919062000500565b5060008090505b6000548110156200045b576008819080600181540180825580915050600190039060005260206000200160009091909190915055808060010191505062000419565b506000546040519080825280602002602001820160405280156200048e5781602001602082028036833780820191505090505b5060099080519060200190620004a692919062000500565b50506200057a565b828054828255906000526020600020908101928215620004ed579160200282015b82811115620004ec578251825591602001919060010190620004cf565b5b509050620004fc919062000552565b5090565b8280548282559060005260206000209081019282156200053f579160200282015b828111156200053e57825182559160200191906001019062000521565b5b5090506200054e919062000552565b5090565b6200057791905b808211156200057357600081600090555060010162000559565b5090565b90565b610bf9806200058a6000396000f3fe608060405234801561001057600080fd5b506004361061004c5760003560e01c806339d93b3c146100515780639951fea7146100b0578063a6aa19d21461010f578063d826f88f1461025b575b600080fd5b610059610265565b6040518080602001828103825283818151815260200191508051906020019060200280838360005b8381101561009c578082015181840152602081019050610081565b505050509050019250505060405180910390f35b6100b86102bd565b6040518080602001828103825283818151815260200191508051906020019060200280838360005b838110156100fb5780820151818401526020810190506100e0565b505050509050019250505060405180910390f35b6102596004803603604081101561012557600080fd5b810190808035906020019064010000000081111561014257600080fd5b82018360208201111561015457600080fd5b8035906020019184602083028401116401000000008311171561017657600080fd5b919080806020026020016040519081016040528093929190818152602001838360200280828437600081840152601f19601f820116905080830192505050505050509192919290803590602001906401000000008111156101d657600080fd5b8201836020820111156101e857600080fd5b8035906020019184602083028401116401000000008311171561020a57600080fd5b919080806020026020016040519081016040528093929190818152602001838360200280828437600081840152601f19601f820116905080830192505050505050509192919290505050610315565b005b610263610533565b005b606060068054806020026020016040519081016040528092919081815260200182805480156102b357602002820191906000526020600020905b81548152602001906001019080831161029f575b5050505050905090565b6060600780548060200260200160405190810160405280929190818152602001828054801561030b57602002820191906000526020600020905b8154815260200190600101908083116102f7575b5050505050905090565b6000546001541061038e576040517f08c379a00000000000000000000000000000000000000000000000000000000081526004018080602001828103825260208152602001807f6e5f636c69656e7473566f746564206973206f766572206e5f636c69656e747381525060200191505060405180910390fd5b60016000815480929190600101919050555060008090505b6000548110156105115760008382815181106103be57fe5b6020026020010151146105045773__MedianHeap____________________________63c13633ef600283815481106103f257fe5b906000526020600020906004020185848151811061040c57fe5b60200260200101516040518363ffffffff1660e01b8152600401808381526020018281526020019250505060006040518083038186803b15801561044f57600080fd5b505af4158015610463573d6000803e3d6000fd5b5050505073__MedianHeap____________________________63c13633ef6003838154811061048e57fe5b90600052602060002090600402018484815181106104a857fe5b60200260200101516040518363ffffffff1660e01b8152600401808381526020018281526020019250505060006040518083038186803b1580156104eb57600080fd5b505af41580156104ff573d6000803e3d6000fd5b505050505b80806001019150506103a6565b50600054600154141561052f5761052661065d565b61052e610533565b5b5050565b600060018190555060008090505b60005481101561065a5773__MedianHeap____________________________6349b13d1e6002838154811061057257fe5b90600052602060002090600402016040518263ffffffff1660e01b81526004018082815260200191505060006040518083038186803b1580156105b457600080fd5b505af41580156105c8573d6000803e3d6000fd5b5050505073__MedianHeap____________________________6349b13d1e600383815481106105f357fe5b90600052602060002090600402016040518263ffffffff1660e01b81526004018082815260200191505060006040518083038186803b15801561063557600080fd5b505af4158015610649573d6000803e3d6000fd5b505050508080600101915050610541565b50565b60008090505b6000548110156107f85773__MedianHeap____________________________635998ef8c6002838154811061069457fe5b90600052602060002090600402016040518263ffffffff1660e01b81526004018082815260200191505060206040518083038186803b1580156106d657600080fd5b505af41580156106ea573d6000803e3d6000fd5b505050506040513d602081101561070057600080fd5b81019080805190602001909291905050506004828154811061071e57fe5b906000526020600020018190555073__MedianHeap____________________________635998ef8c6003838154811061075357fe5b90600052602060002090600402016040518263ffffffff1660e01b81526004018082815260200191505060206040518083038186803b15801561079557600080fd5b505af41580156107a9573d6000803e3d6000fd5b505050506040513d60208110156107bf57600080fd5b8101908080519060200190929190505050600582815481106107dd57fe5b90600052602060002001819055508080600101915050610663565b5061085a600480548060200260200160405190810160405280929190818152602001828054801561084857602002820191906000526020600020905b815481526020019060010190808311610834575b50505050506000600160005403610965565b60008090505b6000548110156108ad576001810160066008838154811061087d57fe5b90600052602060002001548154811061089257fe5b90600052602060002001819055508080600101915050610860565b5061090f60058054806020026020016040519081016040528092919081815260200182805480156108fd57602002820191906000526020600020905b8154815260200190600101908083116108e9575b50505050506000600160005403610965565b60008090505b600054811015610962576001810160076009838154811061093257fe5b90600052602060002001548154811061094757fe5b90600052602060002001819055508080600101915050610915565b50565b808210156109a557600060028284018161097b57fe5b049050610989848483610965565b610997846001830184610965565b6109a3848483856109aa565b505b505050565b6000839050600060018401905060008590505b8483111580156109cd5750838211155b15610ab65786600883815481106109e057fe5b9060005260206000200154815181106109f557fe5b60200260200101518760088581548110610a0b57fe5b906000526020600020015481518110610a2057fe5b602002602001015111610a715760088380600101945081548110610a4057fe5b906000526020600020015460098280600101935081548110610a5e57fe5b9060005260206000200181905550610ab1565b60088280600101935081548110610a8457fe5b906000526020600020015460098280600101935081548110610aa257fe5b90600052602060002001819055505b6109bd565b84831115610b175760008290505b848111610b115760088181548110610ad857fe5b906000526020600020015460098380600101945081548110610af657fe5b90600052602060002001819055508080600101915050610ac4565b50610b6c565b60008390505b858111610b6a5760088181548110610b3157fe5b906000526020600020015460098380600101945081548110610b4f57fe5b90600052602060002001819055508080600101915050610b1d565b505b60008690505b848111610bb95760098181548110610b8657fe5b906000526020600020015460088281548110610b9e57fe5b90600052602060002001819055508080600101915050610b72565b505050505050505056fea26469706673582212209ee7506acefcccd3571dc5c06346881d7732976fc1e2ccc66dc2f80b70e903c664736f6c63430006040033",
  "source": "// SPDX-License-Identifier: MIT\r\npragma solidity >=0.5.1 <0.9.0;\r\n\r\nimport \"./heap.sol\";\r\nimport \"./median_heap.sol\";\r\n\r\ncontract Rank {\r\n    // mapping(uint => uint) public IdtoIndex;\r\n    // mapping(uint => uint) public IndextoId;\r\n    using MinHeap for uint256;\r\n    using MaxHeap for uint256;\r\n    using MedianHeap for uint256;\r\n\r\n    uint256 n_clients;\r\n    uint256 n_clientsVoted;\r\n\r\n    MedHeap[] points1;\r\n    MedHeap[] points2;\r\n\r\n    uint256[] medianPoints1;\r\n    uint256[] medianPoints2;\r\n\r\n    uint256[] points1Rank;\r\n    uint256[] points2Rank;\r\n\r\n    uint256[] rankArr1;\r\n    uint256[] rankArr2;\r\n\r\n    constructor(uint256 num_clients) public {\r\n        n_clients = num_clients;\r\n        n_clientsVoted = 0;\r\n\r\n        for (uint256 i = 0; i < n_clients; i++) {\r\n            points1.push(\r\n                MedHeap(\r\n                    Heap(new uint256[](n_clients), 0),\r\n                    Heap(new uint256[](n_clients), 0)\r\n                )\r\n            );\r\n            points2.push(\r\n                MedHeap(\r\n                    Heap(new uint256[](n_clients), 0),\r\n                    Heap(new uint256[](n_clients), 0)\r\n                )\r\n            );\r\n        }\r\n\r\n        medianPoints1 = new uint256[](n_clients);\r\n        medianPoints2 = new uint256[](n_clients);\r\n\r\n        points1Rank = new uint256[](n_clients);\r\n        points2Rank = new uint256[](n_clients);\r\n\r\n\r\n        for (uint256 i = 0; i < n_clients; i++) {\r\n            rankArr1.push(i);\r\n        }\r\n        rankArr2 = new uint256[](n_clients);\r\n    }\r\n\r\n    function reset() public {\r\n        n_clientsVoted = 0;\r\n        for (uint256 i = 0; i < n_clients; i++) {\r\n            MedianHeap.reset(points1[i]);\r\n            MedianHeap.reset(points2[i]);\r\n        }\r\n    }\r\n\r\n    function ranking() private {\r\n        for (uint256 i = 0; i < n_clients; i++) {\r\n            medianPoints1[i] = MedianHeap.get_median(points1[i]);\r\n            medianPoints2[i] = MedianHeap.get_median(points2[i]);\r\n        }\r\n        merge_sort(medianPoints1, 0, n_clients - 1);\r\n        for (uint256 i = 0; i < n_clients; i++) {\r\n            points1Rank[rankArr1[i]] = i + 1;\r\n        }\r\n\r\n        merge_sort(medianPoints2, 0, n_clients - 1);\r\n        for (uint256 i = 0; i < n_clients; i++) {\r\n            points2Rank[rankArr2[i]] = i + 1;\r\n        }\r\n    }\r\n\r\n    function upload(uint256[] memory _points1, uint256[] memory _points2) public {\r\n        require(n_clientsVoted < n_clients, \"n_clientsVoted is over n_clients\");\r\n        n_clientsVoted++;\r\n\r\n        for (uint256 i = 0; i < n_clients; i++) {\r\n            if (_points1[i] != 0) {\r\n                MedianHeap.insert(points1[i], _points1[i]);\r\n                MedianHeap.insert(points2[i], _points2[i]);\r\n            }\r\n        }\r\n\r\n        if (n_clientsVoted == n_clients) {\r\n            ranking();\r\n            reset();\r\n        }\r\n    }\r\n\r\n    function seeRank1() public view returns (uint256[] memory) {\r\n        return points1Rank;\r\n    }\r\n\r\n    function seeRank2() public view returns (uint256[] memory) {\r\n        return points2Rank;\r\n    }\r\n\r\n    function merge(\r\n        uint256[] memory list,\r\n        uint256 left,\r\n        uint256 mid,\r\n        uint256 right\r\n    ) private {\r\n        uint256 i = left;\r\n        uint256 j = mid + 1;\r\n        uint256 k = left;\r\n\r\n        while (i <= mid && j <= right) {\r\n            if (list[rankArr1[i]] <= list[rankArr1[j]]) {\r\n                rankArr2[k++] = rankArr1[i++];\r\n            } else {\r\n                rankArr2[k++] = rankArr1[j++];\r\n            }\r\n        }\r\n\r\n        if (i > mid) {\r\n            for (uint256 l = j; l <= right; l++) {\r\n                rankArr2[k++] = rankArr1[l];\r\n            }\r\n        } else {\r\n            for (uint256 l = i; l <= mid; l++) {\r\n                rankArr2[k++] = rankArr1[l];\r\n            }\r\n        }\r\n\r\n        for (uint256 l = left; l <= right; l++) {\r\n            rankArr1[l] = rankArr2[l];\r\n        }\r\n    }\r\n\r\n    // sorts in increasing order\r\n    function merge_sort(\r\n        uint256[] memory list,\r\n        uint256 left,\r\n        uint256 right\r\n    ) private {\r\n        if (left < right) {\r\n            uint256 mid = (left + right) / 2;\r\n            merge_sort(list, left, mid);\r\n            merge_sort(list, mid + 1, right);\r\n            merge(list, left, mid, right);\r\n        }\r\n    }\r\n}\r\n",
  "sourcePath": "C:/Users/User/Development/pytorch/graduate_project/FLwithBC-just-ledger/src/truffle/contracts/Rank.sol",
  "compiler": {
    "name": "solc",
    "version": "0.6.4+commit.1dca32f3.Emscripten.clang"
  },
  "schemaVersion": "3.3.3",
  "updatedAt": "2021-02-17T16:03:38.699Z",
  "devdoc": {
    "methods": {}
  },
  "userdoc": {
    "methods": {}
  }
}