{
  "contractName": "Rank",
  "abi": [
    {
      "inputs": [
        {
          "internalType": "uint8",
          "name": "num_clients",
          "type": "uint8"
        }
      ],
      "payable": false,
      "stateMutability": "nonpayable",
      "type": "constructor"
    },
    {
      "constant": false,
      "inputs": [],
      "name": "reset",
      "outputs": [],
      "payable": false,
      "stateMutability": "nonpayable",
      "type": "function"
    },
    {
      "constant": false,
      "inputs": [],
      "name": "ranking",
      "outputs": [],
      "payable": false,
      "stateMutability": "nonpayable",
      "type": "function"
    },
    {
      "constant": false,
      "inputs": [
        {
          "internalType": "uint16[]",
          "name": "points",
          "type": "uint16[]"
        }
      ],
      "name": "upload",
      "outputs": [],
      "payable": false,
      "stateMutability": "nonpayable",
      "type": "function"
    },
    {
      "constant": true,
      "inputs": [],
      "name": "see_rank",
      "outputs": [
        {
          "internalType": "uint16[]",
          "name": "",
          "type": "uint16[]"
        }
      ],
      "payable": false,
      "stateMutability": "view",
      "type": "function"
    }
  ],
  "bytecode": "0x60806040523480156200001157600080fd5b506040516200131338038062001313833981810160405260208110156200003757600080fd5b8101908080519060200190929190505050806000806101000a81548160ff021916908360ff16021790555060008060016101000a81548160ff021916908360ff1602179055506000809054906101000a900460ff1660ff16604051908082528060200260200182016040528015620000be5781602001602082028038833980820191505090505b5060079080519060200190620000d692919062000300565b506000809054906101000a900460ff1660ff166040519080825280602002602001820160405280156200011e57816020015b6060815260200190600190039081620001085790505b506001908051906020019062000136929190620003b1565b506000809054906101000a900460ff1660ff16604051908082528060200260200182016040528015620001785781602001602082028038833980820191505090505b50600290805190602001906200019092919062000300565b506000809054906101000a900460ff1660ff16604051908082528060200260200182016040528015620001d25781602001602082028038833980820191505090505b5060039080519060200190620001ea92919062000300565b506000809054906101000a900460ff1660ff166040519080825280602002602001820160405280156200022c5781602001602082028038833980820191505090505b50600490805190602001906200024492919062000300565b506000809054906101000a900460ff1660ff16604051908082528060200260200182016040528015620002865781602001602082028038833980820191505090505b50600590805190602001906200029e92919062000300565b506000809054906101000a900460ff1660ff16604051908082528060200260200182016040528015620002e05781602001602082028038833980820191505090505b5060069080519060200190620002f892919062000300565b505062000580565b82805482825590600052602060002090600f016010900481019282156200039e5791602002820160005b838211156200036c57835183826101000a81548161ffff021916908361ffff16021790555092602001926002016020816001010492830192600103026200032a565b80156200039c5782816101000a81549061ffff02191690556002016020816001010492830192600103026200036c565b505b509050620003ad919062000418565b5090565b82805482825590600052602060002090810192821562000405579160200282015b8281111562000404578251829080519060200190620003f39291906200044c565b5091602001919060010190620003d2565b5b509050620004149190620004fd565b5090565b6200044991905b808211156200044557600081816101000a81549061ffff0219169055506001016200041f565b5090565b90565b82805482825590600052602060002090600f01601090048101928215620004ea5791602002820160005b83821115620004b857835183826101000a81548161ffff021916908361ffff160217905550926020019260020160208160010104928301926001030262000476565b8015620004e85782816101000a81549061ffff0219169055600201602081600101049283019260010302620004b8565b505b509050620004f9919062000418565b5090565b6200052b91905b808211156200052757600081816200051d91906200052e565b5060010162000504565b5090565b90565b50805460008255600f01601090049060005260206000209081019062000555919062000558565b50565b6200057d91905b80821115620005795760008160009055506001016200055f565b5090565b90565b610d8380620005906000396000f3fe608060405234801561001057600080fd5b506004361061004c5760003560e01c80633290e9c11461005157806342431e761461010957806392105b6e14610168578063d826f88f14610172575b600080fd5b6101076004803603602081101561006757600080fd5b810190808035906020019064010000000081111561008457600080fd5b82018360208201111561009657600080fd5b803590602001918460208302840111640100000000831117156100b857600080fd5b919080806020026020016040519081016040528093929190818152602001838360200280828437600081840152601f19601f82011690508083019250505050505050919291929050505061017c565b005b61011161043e565b6040518080602001828103825283818151815260200191508051906020019060200280838360005b83811015610154578082015181840152602081019050610139565b505050509050019250505060405180910390f35b6101706104be565b005b61017a610ab4565b005b6000809054906101000a900460ff1660ff16600060019054906101000a900460ff1660ff1610610214576040517f08c379a00000000000000000000000000000000000000000000000000000000081526004018080602001828103825260208152602001807f6e5f636c69656e7473566f746564206973206f766572206e5f636c69656e747381525060200191505060405180910390fd5b806001600060019054906101000a900460ff1660ff168154811061023457fe5b906000526020600020019080519060200190610251929190610c73565b5060008090505b6000809054906101000a900460ff1660ff168160ff1610156103cc576000828260ff168151811061028557fe5b602002602001015161ffff16146103bf576006600060019054906101000a900460ff1660ff16815481106102b557fe5b906000526020600020906010918282040191900660020281819054906101000a900461ffff168092919060010191906101000a81548161ffff021916908361ffff1602179055505060058160ff168154811061030d57fe5b906000526020600020906010918282040191900660020281819054906101000a900461ffff168092919060010191906101000a81548161ffff021916908361ffff16021790555050818160ff168151811061036457fe5b602002602001015160038260ff168154811061037c57fe5b90600052602060002090601091828204019190066002028282829054906101000a900461ffff160192506101000a81548161ffff021916908361ffff1602179055505b8080600101915050610258565b506000600181819054906101000a900460ff168092919060010191906101000a81548160ff021916908360ff160217905550506000809054906101000a900460ff1660ff16600060019054906101000a900460ff1660ff16141561043b576104326104be565b61043a610ab4565b5b50565b606060078054806020026020016040519081016040528092919081815260200182805480156104b457602002820191906000526020600020906000905b82829054906101000a900461ffff1661ffff168152602001906002019060208260010104928301926001038202915080841161047b5790505b5050505050905090565b60008090506000809050600091505b6000809054906101000a900460ff1660ff168260ff16101561058b5760058260ff16815481106104f957fe5b90600052602060002090601091828204019190066002029054906101000a900461ffff1661ffff1660038360ff168154811061053157fe5b90600052602060002090601091828204019190066002028282829054906101000a900461ffff1661ffff168161056357fe5b0492506101000a81548161ffff021916908361ffff16021790555081806001019250506104cd565b600091505b6000809054906101000a900460ff1660ff168260ff1610156107ae57600090505b6000809054906101000a900460ff1660ff168160ff16101561070c57600060018360ff16815481106105df57fe5b906000526020600020018260ff16815481106105f757fe5b90600052602060002090601091828204019190066002029054906101000a900461ffff1661ffff16146106ff576106ac60018360ff168154811061063757fe5b906000526020600020018260ff168154811061064f57fe5b90600052602060002090601091828204019190066002029054906101000a900461ffff1660038360ff168154811061068357fe5b90600052602060002090601091828204019190066002029054906101000a900461ffff16610c4c565b60028360ff16815481106106bc57fe5b90600052602060002090601091828204019190066002028282829054906101000a900461ffff160192506101000a81548161ffff021916908361ffff1602179055505b80806001019150506105b1565b60068260ff168154811061071c57fe5b90600052602060002090601091828204019190066002029054906101000a900461ffff1661ffff1660028360ff168154811061075457fe5b90600052602060002090601091828204019190066002028282829054906101000a900461ffff1661ffff168161078657fe5b0492506101000a81548161ffff021916908361ffff1602179055508180600101925050610590565b600091505b6000809054906101000a900460ff1660ff168260ff16101561094457600090505b6000809054906101000a900460ff1660ff168160ff16101561093757600060018360ff168154811061080257fe5b906000526020600020018260ff168154811061081a57fe5b90600052602060002090601091828204019190066002029054906101000a900461ffff1661ffff161461092a5760028160ff168154811061085757fe5b90600052602060002090601091828204019190066002029054906101000a900461ffff1661ffff1660018360ff168154811061088f57fe5b906000526020600020018260ff16815481106108a757fe5b90600052602060002090601091828204019190066002029054906101000a900461ffff1661ffff16816108d657fe5b0460048260ff16815481106108e757fe5b90600052602060002090601091828204019190066002028282829054906101000a900461ffff160192506101000a81548161ffff021916908361ffff1602179055505b80806001019150506107d4565b81806001019250506107b3565b600091505b6000809054906101000a900460ff1660ff168260ff161015610ab057600160078360ff168154811061097757fe5b90600052602060002090601091828204019190066002026101000a81548161ffff021916908361ffff160217905550600090505b6000809054906101000a900460ff1660ff168160ff161015610aa35760048260ff16815481106109d757fe5b90600052602060002090601091828204019190066002029054906101000a900461ffff1661ffff1660048260ff1681548110610a0f57fe5b90600052602060002090601091828204019190066002029054906101000a900461ffff1661ffff161015610a965760078260ff1681548110610a4d57fe5b906000526020600020906010918282040191900660020281819054906101000a900461ffff168092919060010191906101000a81548161ffff021916908361ffff160217905550505b80806001019150506109ab565b8180600101925050610949565b5050565b60008060016101000a81548160ff021916908360ff16021790555060008090505b6000809054906101000a900460ff1660ff168161ffff161015610c4957600060028261ffff1681548110610b0557fe5b90600052602060002090601091828204019190066002026101000a81548161ffff021916908361ffff160217905550600060038261ffff1681548110610b4757fe5b90600052602060002090601091828204019190066002026101000a81548161ffff021916908361ffff160217905550600060048261ffff1681548110610b8957fe5b90600052602060002090601091828204019190066002026101000a81548161ffff021916908361ffff160217905550600060058261ffff1681548110610bcb57fe5b90600052602060002090601091828204019190066002026101000a81548161ffff021916908361ffff160217905550600060068261ffff1681548110610c0d57fe5b90600052602060002090601091828204019190066002026101000a81548161ffff021916908361ffff1602179055508080600101915050610ad5565b50565b60008161ffff168361ffff1610610c67578183039050610c6d565b82820390505b92915050565b82805482825590600052602060002090600f01601090048101928215610d0c5791602002820160005b83821115610cdc57835183826101000a81548161ffff021916908361ffff1602179055509260200192600201602081600101049283019260010302610c9c565b8015610d0a5782816101000a81549061ffff0219169055600201602081600101049283019260010302610cdc565b505b509050610d199190610d1d565b5090565b610d4b91905b80821115610d4757600081816101000a81549061ffff021916905550600101610d23565b5090565b9056fea265627a7a723158206897eeb63a41c7a342fe461cddf7afee0fa92911abb98e53b00c47894f7a00d664736f6c63430005100032",
  "source": "// SPDX-License-Identifier: MIT\r\npragma solidity >=0.4.22 <0.9.0;\r\n\r\ncontract Rank {\r\n    // mapping(uint16 => uint16) public IdtoIndex;\r\n    // mapping(uint16 => uint16) public IndextoId;\r\n\r\n    uint8 n_clients;\r\n    uint8 n_clientsVoted;\r\n\r\n    uint16[][] uploadedPoints;\r\n    uint16[] evalPoints;\r\n\r\n    uint16[] justAvgPoints;\r\n    uint16[] weightAvgPoints;\r\n    uint16[] n_points;\r\n    uint16[] n_teachers;\r\n    uint16[] rankArr;\r\n\r\n    constructor(uint8 num_clients) public {\r\n        n_clients = num_clients;\r\n        n_clientsVoted = 0;\r\n        rankArr = new uint16[](n_clients);\r\n        uploadedPoints = new uint16[][](n_clients);\r\n        evalPoints = new uint16[](n_clients);\r\n        justAvgPoints = new uint16[](n_clients);\r\n        weightAvgPoints = new uint16[](n_clients);\r\n        n_points = new uint16[](n_clients);\r\n        n_teachers = new uint16[](n_clients);\r\n    }\r\n\r\n    function reset() public {\r\n        n_clientsVoted = 0;\r\n        for (uint16 i = 0; i < n_clients; i++) {\r\n            evalPoints[i] = 0;\r\n            justAvgPoints[i] = 0;\r\n            weightAvgPoints[i] = 0;\r\n            n_points[i] = 0;\r\n            n_teachers[i] = 0;\r\n        }\r\n    }\r\n\r\n    function dist(uint16 x, uint16 y) private pure returns (uint16) {\r\n        if (x >= y) {\r\n            return x - y;\r\n        } else {\r\n            return y - x;\r\n        }\r\n    }\r\n\r\n    function ranking() public {\r\n        // 1. 최초 단순평균 구하기\r\n        uint8 i = 0;\r\n        uint8 j = 0;\r\n\r\n        for (i = 0; i < n_clients; i++) {\r\n            justAvgPoints[i] /= n_points[i]; //소수점 !!!!\r\n        }\r\n\r\n        // 2. weight 구하기\r\n        // weight = (evalPointSum-evalPoint) / evalPointSum\r\n        // since solidity has no float type and we need only ranking, instead of using weight, use evalPointSum-evalPoint\r\n        // uint16 evalPointSum = 0;\r\n        for (i = 0; i < n_clients; i++) {\r\n            for (j = 0; j < n_clients; j++) {\r\n                if (uploadedPoints[i][j] != 0) {\r\n                    evalPoints[i] += dist(\r\n                        uploadedPoints[i][j],\r\n                        justAvgPoints[j]\r\n                    );\r\n                }\r\n            }\r\n            evalPoints[i] /= n_teachers[i];\r\n            // evalPointSum += evalPoints[i];\r\n        }\r\n\r\n        // 3. 가중평균에 따른 ranking 구하기\r\n        for (i = 0; i < n_clients; i++) {\r\n            for (j = 0; j < n_clients; j++) {\r\n                if (uploadedPoints[i][j] != 0) {\r\n                    weightAvgPoints[j] += (uploadedPoints[i][j] /\r\n                        evalPoints[j]);\r\n                }\r\n            }\r\n        }\r\n\r\n        for (i = 0; i < n_clients; i++) {\r\n            rankArr[i] = 1;\r\n            for (j = 0; j < n_clients; j++) {\r\n                if (weightAvgPoints[j] < weightAvgPoints[i]) {\r\n                    rankArr[i]++;\r\n                }\r\n            }\r\n        }\r\n    }\r\n\r\n    function upload(uint16[] memory points) public {\r\n        require(n_clientsVoted < n_clients, \"n_clientsVoted is over n_clients\");\r\n        uploadedPoints[n_clientsVoted] = points;\r\n\r\n        for (uint8 i = 0; i < n_clients; i++) {\r\n            if (points[i] != 0) {\r\n                n_teachers[n_clientsVoted]++;\r\n                n_points[i]++;\r\n                justAvgPoints[i] += points[i];\r\n            }\r\n        }\r\n        n_clientsVoted++;\r\n        if (n_clientsVoted == n_clients) {\r\n            ranking();\r\n            reset();\r\n        }\r\n    }\r\n\r\n    function see_rank() public view returns (uint16[] memory) {\r\n        return rankArr;\r\n    }\r\n}\r\n",
  "sourcePath": "C:/Users/User/Development/pytorch/graduate_project/FLwithBC-just-ledger/src/truffle/contracts/Rank.sol",
  "compiler": {
    "name": "solc",
    "version": "0.5.16+commit.9c3226ce.Emscripten.clang"
  },
  "schemaVersion": "3.3.3",
  "updatedAt": "2021-02-15T02:12:02.853Z",
  "devdoc": {
    "methods": {}
  },
  "userdoc": {
    "methods": {}
  }
}