{
  "contractName": "Rank",
  "abi": [
    {
      "constant": false,
      "inputs": [
        {
          "internalType": "uint8",
          "name": "numclients",
          "type": "uint8"
        }
      ],
      "name": "setting",
      "outputs": [],
      "payable": false,
      "stateMutability": "nonpayable",
      "type": "function"
    },
    {
      "constant": false,
      "inputs": [],
      "name": "ranking",
      "outputs": [],
      "payable": false,
      "stateMutability": "nonpayable",
      "type": "function"
    },
    {
      "constant": false,
      "inputs": [
        {
          "internalType": "uint16[]",
          "name": "avgdist",
          "type": "uint16[]"
        }
      ],
      "name": "upload",
      "outputs": [],
      "payable": false,
      "stateMutability": "nonpayable",
      "type": "function"
    },
    {
      "constant": true,
      "inputs": [],
      "name": "see_rank",
      "outputs": [
        {
          "internalType": "uint256[]",
          "name": "",
          "type": "uint256[]"
        }
      ],
      "payable": false,
      "stateMutability": "view",
      "type": "function"
    }
  ],
  "bytecode": "0x608060405234801561001057600080fd5b50610630806100206000396000f3fe608060405234801561001057600080fd5b506004361061004c5760003560e01c80633290e9c11461005157806342431e761461010957806392105b6e14610168578063972a2ec214610172575b600080fd5b6101076004803603602081101561006757600080fd5b810190808035906020019064010000000081111561008457600080fd5b82018360208201111561009657600080fd5b803590602001918460208302840111640100000000831117156100b857600080fd5b919080806020026020016040519081016040528093929190818152602001838360200280828437600081840152601f19601f8201169050808301925050505050505091929192905050506101a3565b005b6101116102ab565b6040518080602001828103825283818151815260200191508051906020019060200280838360005b83811015610154578082015181840152602081019050610139565b505050509050019250505060405180910390f35b610170610303565b005b6101a16004803603602081101561018857600080fd5b81019080803560ff169060200190929190505050610448565b005b60008081819054906101000a900460ff168092919060010191906101000a81548160ff021916908360ff1602179055505060008090505b81518110156102735760008282815181106101f157fe5b602002602001015161ffff161461022a576002818154811061020f57fe5b90600052602060002001600081548092919060010191905055505b81818151811061023657fe5b602002602001015161ffff166001828154811061024f57fe5b906000526020600020016000828254019250508190555080806001019150506101da565b50600460009054906101000a900460ff1660ff166000809054906101000a900460ff1660ff1614156102a8576102a7610303565b5b50565b606060038054806020026020016040519081016040528092919081815260200182805480156102f957602002820191906000526020600020905b8154815260200190600101908083116102e5575b5050505050905090565b60008090505b600280549050811015610366576002818154811061032357fe5b90600052602060002001546001828154811061033b57fe5b9060005260206000200160008282548161035157fe5b04925050819055508080600101915050610309565b5060008090505b60018054905081101561042d5760006001905060008090505b6001805490508110156103ff576000600182815481106103a257fe5b9060005260206000200154146103f257600183815481106103bf57fe5b9060005260206000200154600182815481106103d757fe5b906000526020600020015410156103f15781806001019250505b5b8080600101915050610386565b508060ff166003838154811061041157fe5b906000526020600020018190555050808060010191505061036d565b50610446600460009054906101000a900460ff16610448565b565b60008060006101000a81548160ff021916908360ff16021790555080600460006101000a81548160ff021916908360ff160217905550600460009054906101000a900460ff1660ff166040519080825280602002602001820160405280156104bf5781602001602082028038833980820191505090505b50600190805190602001906104d5929190610589565b50600460009054906101000a900460ff1660ff166040519080825280602002602001820160405280156105175781602001602082028038833980820191505090505b506002908051906020019061052d929190610589565b50600460009054906101000a900460ff1660ff1660405190808252806020026020018201604052801561056f5781602001602082028038833980820191505090505b5060039080519060200190610585929190610589565b5050565b8280548282559060005260206000209081019282156105c5579160200282015b828111156105c45782518255916020019190600101906105a9565b5b5090506105d291906105d6565b5090565b6105f891905b808211156105f45760008160009055506001016105dc565b5090565b9056fea265627a7a723158208b3ee0c9e4d70edde049ffb7ed4de9b7affab3f07f0a4e75317b9ff326db55da64736f6c63430005100032",
  "source": "// SPDX-License-Identifier: MIT\npragma solidity >=0.4.22 <0.9.0;\n\ncontract Rank {\n\t// mapping(uint8 => uint8) public IdtoIndex;\n\t// mapping(uint8 => uint8) public IndextoId;\n\n\tuint8 n_clientsVoted ;\n\tuint[] avgdistarr ; \n\tuint[] votearr ; \n\tuint[] rankarr ; \n\n\tuint8 numclient ; \n\t\n\tfunction setting(uint8 numclients) public{\n\t\tn_clientsVoted = 0 ;\n\t\tnumclient = numclients ; \n\t\tavgdistarr = new uint[](numclient) ; \n\t\tvotearr = new uint[](numclient) ; \n\t\trankarr = new uint[](numclient) ; \n\t}\n\n\tfunction ranking() public {\n\t\tfor(uint i = 0 ; i<votearr.length ; i++){\n\t\t\tavgdistarr[i]/=votearr[i] ; \n\t\t}\n\n\t\tfor(uint i = 0 ; i<avgdistarr.length ; i++){\n\t\t\tuint8 rank = 1 ;\n\t\t\tfor(uint j = 0 ; j<avgdistarr.length ; j++){\n\t\t\t\tif(avgdistarr[j]!=0){\n\t\t\t\t\tif(avgdistarr[j]<avgdistarr[i]){\n\t\t\t\t\t\trank ++ ; \n\t\t\t\t\t}\n\t\t\t\t} \n\t\t\t}\n\t\t\trankarr[i] = rank ; \n\t\t}\n\t\tsetting(numclient) ;\n\t}\n\n\tfunction upload(uint16[] memory avgdist) public {\n\t\tn_clientsVoted ++ ;\n\t\tfor (uint i = 0 ; i < avgdist.length ; i++){\n\t\t\tif(avgdist[i]!=0){\n\t\t\t\tvotearr[i]++ ;\n\t\t\t}\n\t\t\tavgdistarr[i] += avgdist[i] ; \n\t\t}\n\t\tif (n_clientsVoted == numclient){\n\t\t\tranking();\n\t\t}\n\t}\n\n\tfunction see_rank() public view returns(uint[] memory){\n\t\treturn rankarr ; \n\t}\n\n\n    //개별 ranking 산정 version \n    // function ranking(uint8 clientIndex) returns(uint8) public{\n    //     uint8 rank = 1 ; \n    //     for(uint i = 0 ; i<avgdistarr.length ; i++){\n    //         if(avgdistarr[i]!=0){\n    //             if(avgdistarr[i]<avgdistarr[clientIndex]){\n    //                 rank ++ ; \n    //             }\n    //         }\n    //     }\n    //     return rank ; \n    // }\n\n}",
  "sourcePath": "/home/ysy970923/FLwithBCJustLedger/src/truffle/contracts/Rank.sol",
  "compiler": {
    "name": "solc",
    "version": "0.5.16+commit.9c3226ce.Emscripten.clang"
  },
  "schemaVersion": "3.3.2",
  "updatedAt": "2021-02-10T06:46:49.085Z",
  "devdoc": {
    "methods": {}
  },
  "userdoc": {
    "methods": {}
  }
}