{
  "contractName": "Rank",
  "abi": [
    {
      "inputs": [
        {
          "internalType": "uint256",
          "name": "num_clients",
          "type": "uint256"
        }
      ],
      "stateMutability": "nonpayable",
      "type": "constructor"
    },
    {
      "inputs": [],
      "name": "reset",
      "outputs": [],
      "stateMutability": "nonpayable",
      "type": "function"
    },
    {
      "inputs": [
        {
          "internalType": "uint256[]",
          "name": "_points1",
          "type": "uint256[]"
        }
      ],
      "name": "upload",
      "outputs": [],
      "stateMutability": "nonpayable",
      "type": "function"
    },
    {
      "inputs": [],
      "name": "seeMedianPoints1",
      "outputs": [
        {
          "internalType": "uint256[]",
          "name": "",
          "type": "uint256[]"
        }
      ],
      "stateMutability": "view",
      "type": "function"
    }
  ],
  "bytecode": "0x60806040523480156200001157600080fd5b5060405162000d4a38038062000d4a833981810160405260208110156200003757600080fd5b810190808051906020019092919050505080600081905550600060018190555060008090505b600054811015620001ae57600260405180604001604052806040518060400160405280600054604051908082528060200260200182016040528015620000b25781602001602082028038833980820191505090505b508152602001600081525081526020016040518060400160405280600054604051908082528060200260200182016040528015620000ff5781602001602082028038833980820191505090505b5081526020016000815250815250908060018154018082558091505060019003906000526020600020906004020160009091909190915060008201518160000160008201518160000190805190602001906200015d92919062000201565b5060208201518160010155505060208201518160020160008201518160000190805190602001906200019192919062000201565b50602082015181600101555050505080806001019150506200005d565b50600054604051908082528060200260200182016040528015620001e15781602001602082028038833980820191505090505b5060039080519060200190620001f992919062000253565b5050620002cd565b82805482825590600052602060002090810192821562000240579160200282015b828111156200023f57825182559160200191906001019062000222565b5b5090506200024f9190620002a5565b5090565b82805482825590600052602060002090810192821562000292579160200282015b828111156200029157825182559160200191906001019062000274565b5b509050620002a19190620002a5565b5090565b620002ca91905b80821115620002c6576000816000905550600101620002ac565b5090565b90565b610a6d80620002dd6000396000f3fe608060405234801561001057600080fd5b50600436106100405760003560e01c8062d024771461004557806328ffb446146100a4578063d826f88f1461015c575b600080fd5b61004d610166565b6040518080602001828103825283818151815260200191508051906020019060200280838360005b83811015610090578082015181840152602081019050610075565b505050509050019250505060405180910390f35b61015a600480360360208110156100ba57600080fd5b81019080803590602001906401000000008111156100d757600080fd5b8201836020820111156100e957600080fd5b8035906020019184602083028401116401000000008311171561010b57600080fd5b919080806020026020016040519081016040528093929190818152602001838360200280828437600081840152601f19601f8201169050808301925050505050505091929192905050506101be565b005b610164610310565b005b606060038054806020026020016040519081016040528092919081815260200182805480156101b457602002820191906000526020600020905b8154815260200190600101908083116101a0575b5050505050905090565b60005460015410610237576040517f08c379a00000000000000000000000000000000000000000000000000000000081526004018080602001828103825260208152602001807f6e5f636c69656e7473566f746564206973206f766572206e5f636c69656e747381525060200191505060405180910390fd5b60016000815480929190600101919050555060008090505b6000548110156102f757600082828151811061026757fe5b6020026020010151146102ea576102ab6002828154811061028457fe5b906000526020600020906004020183838151811061029e57fe5b602002602001015161035b565b6102ce600282815481106102bb57fe5b9060005260206000209060040201610441565b600382815481106102db57fe5b90600052602060002001819055505b808060010191505061024f565b50600054600154141561030d5761030c610310565b5b50565b600060018190555060008090505b6000548110156103585761034b6002828154811061033857fe5b9060005260206000209060040201610456565b808060010191505061031e565b50565b60008260000160010154141561037d576103788260000182610473565b61043d565b8061038a83600001610541565b11156103a25761039d8260000182610473565b6103b0565b6103af8260020182610565565b5b6001826002016001015401826000016001015411156103f95760006103d783600001610541565b90506103e583600001610633565b506103f38360020182610565565b5061043c565b81600201600101548260000160010154101561043b57600061041d83600201610823565b905061042b83600201610847565b506104398360000182610473565b505b5b5b5050565b600061044f82600001610541565b9050919050565b600081600001600101819055506000816002016001018190555050565b81600101600081548092919060010191905055506000600183600101540390505b6000811180156104c6575082600001600282816104ad57fe5b04815481106104b857fe5b906000526020600020015482115b1561051e5782600001600282816104d957fe5b04815481106104e457fe5b90600052602060002001548360000182815481106104fe57fe5b90600052602060002001819055506002818161051657fe5b049050610494565b8183600001828154811061052e57fe5b9060005260206000200181905550505050565b60008160000160008154811061055357fe5b90600052602060002001549050919050565b81600101600081548092919060010191905055506000600183600101540390505b6000811180156105b85750826000016002828161059f57fe5b04815481106105aa57fe5b906000526020600020015482105b156106105782600001600282816105cb57fe5b04815481106105d657fe5b90600052602060002001548360000182815481106105f057fe5b90600052602060002001819055506002818161060857fe5b049050610586565b8183600001828154811061062057fe5b9060005260206000200181905550505050565b6000808260000160008154811061064657fe5b9060005260206000200154905060008360000160018560010154038154811061066b57fe5b90600052602060002001549050808460000160008154811061068957fe5b9060005260206000200181905550836001016000815480929190600190039190505550600080905060006001905060006002905060005b876001015482101561078e578760000182815481106106db57fe5b90600052602060002001548860000184815481106106f557fe5b9060005260206000200154111561070e57829050610712565b8190505b87600001818154811061072157fe5b90600052602060002001548510156107845787600001818154811061074257fe5b906000526020600020015488600001858154811061075c57fe5b9060005260206000200181905550809350600184600202019250600284600202019150610789565b61078e565b6106c0565b87600101548310156107f7578760000183815481106107a957fe5b90600052602060002001548510156107f6578760000183815481106107ca57fe5b90600052602060002001548860000185815481106107e457fe5b90600052602060002001819055508293505b5b8488600001858154811061080757fe5b9060005260206000200181905550859650505050505050919050565b60008160000160008154811061083557fe5b90600052602060002001549050919050565b6000808260000160008154811061085a57fe5b9060005260206000200154905060008360000160018560010154038154811061087f57fe5b90600052602060002001549050808460000160008154811061089d57fe5b9060005260206000200181905550836001016000815480929190600190039190505550600080905060006001905060006002905060005b87600101548210156109a2578760000182815481106108ef57fe5b906000526020600020015488600001848154811061090957fe5b9060005260206000200154101561092257829050610926565b8190505b87600001818154811061093557fe5b90600052602060002001548511156109985787600001818154811061095657fe5b906000526020600020015488600001858154811061097057fe5b906000526020600020018190555080935060018460020201925060028460020201915061099d565b6109a2565b6108d4565b8760010154831015610a0b578760000183815481106109bd57fe5b9060005260206000200154851115610a0a578760000183815481106109de57fe5b90600052602060002001548860000185815481106109f857fe5b90600052602060002001819055508293505b5b84886000018581548110610a1b57fe5b906000526020600020018190555085965050505050505091905056fea26469706673582212208afd642fef6a20c85e03795a2c3ee4144d759874642cc0bb504ecbbbaf1817d564736f6c63430006000033",
  "source": "// SPDX-License-Identifier: MIT\r\npragma solidity >=0.5.1 <0.9.0;\r\n\r\nimport \"./heap.sol\";\r\nimport \"./median_heap.sol\";\r\n\r\ncontract Rank {\r\n    // if not use rounds, we have to save the sender\r\n    // or erase the previous points uploaded\r\n    // mapping(address => uint256[]) uploadPoints;\r\n    using MinHeap for uint256;\r\n    using MaxHeap for uint256;\r\n    using MedianHeap for uint256;\r\n\r\n    uint256 n_clients;\r\n    uint256 n_clientsVoted;\r\n\r\n    MedHeap[] points1;\r\n    \r\n    uint256[] medianPoints1;\r\n\r\n    constructor(uint256 num_clients) public {\r\n        n_clients = num_clients;\r\n        n_clientsVoted = 0;\r\n\r\n        for (uint256 i = 0; i < n_clients; i++) {\r\n            points1.push(\r\n                MedHeap(\r\n                    Heap(new uint256[](n_clients), 0),\r\n                    Heap(new uint256[](n_clients), 0)\r\n                )\r\n            );\r\n        }\r\n\r\n        medianPoints1 = new uint256[](n_clients);\r\n    }\r\n\r\n    function reset() public {\r\n        n_clientsVoted = 0;\r\n        for (uint256 i = 0; i < n_clients; i++) {\r\n            MedianHeap.reset(points1[i]);\r\n        }\r\n    }\r\n\r\n    // instead of rounds, how about getting the median of the last n votes?\r\n    function upload(uint256[] memory _points1) public {\r\n        require(n_clientsVoted < n_clients, \"n_clientsVoted is over n_clients\");\r\n        n_clientsVoted++;\r\n\r\n        for (uint256 i = 0; i < n_clients; i++) {\r\n            if (_points1[i] != 0) {\r\n                MedianHeap.insert(points1[i], _points1[i]);\r\n                medianPoints1[i] = MedianHeap.get_median(points1[i]);\r\n            }\r\n        }\r\n\r\n        if (n_clientsVoted == n_clients) {\r\n            reset();\r\n        }\r\n    }\r\n\r\n    function seeMedianPoints1() public view returns (uint256[] memory) {\r\n        return medianPoints1;\r\n    }\r\n}",
  "sourcePath": "C:/Users/User/Development/pytorch/graduate_project/FLwithBC-just-ledger/src/truffle/contracts/Rank.sol",
  "compiler": {
    "name": "solc",
    "version": "0.6.0+commit.26b70077.Emscripten.clang"
  },
  "schemaVersion": "3.3.3",
  "updatedAt": "2021-02-19T02:43:33.043Z",
  "devdoc": {
    "methods": {}
  },
  "userdoc": {
    "methods": {}
  }
}