{
  "contractName": "Rank",
  "abi": [
    {
      "inputs": [],
      "payable": false,
      "stateMutability": "nonpayable",
      "type": "constructor"
    },
    {
      "constant": false,
      "inputs": [],
      "name": "reset",
      "outputs": [],
      "payable": false,
      "stateMutability": "nonpayable",
      "type": "function"
    },
    {
      "constant": false,
      "inputs": [],
      "name": "ranking",
      "outputs": [],
      "payable": false,
      "stateMutability": "nonpayable",
      "type": "function"
    },
    {
      "constant": false,
      "inputs": [
        {
          "internalType": "uint16[]",
          "name": "avgdist",
          "type": "uint16[]"
        }
      ],
      "name": "upload",
      "outputs": [],
      "payable": false,
      "stateMutability": "nonpayable",
      "type": "function"
    },
    {
      "constant": true,
      "inputs": [],
      "name": "see_rank",
      "outputs": [
        {
          "internalType": "uint256[]",
          "name": "",
          "type": "uint256[]"
        }
      ],
      "payable": false,
      "stateMutability": "view",
      "type": "function"
    }
  ],
  "bytecode": "0x608060405234801561001057600080fd5b5060008060006101000a81548160ff021916908360ff1602179055506005600460006101000a81548160ff021916908360ff160217905550600460009054906101000a900460ff1660ff166040519080825280602002602001820160405280156100895781602001602082028038833980820191505090505b506001908051906020019061009f929190610155565b50600460009054906101000a900460ff1660ff166040519080825280602002602001820160405280156100e15781602001602082028038833980820191505090505b50600290805190602001906100f7929190610155565b50600460009054906101000a900460ff1660ff166040519080825280602002602001820160405280156101395781602001602082028038833980820191505090505b506003908051906020019061014f929190610155565b506101c7565b828054828255906000526020600020908101928215610191579160200282015b82811115610190578251825591602001919060010190610175565b5b50905061019e91906101a2565b5090565b6101c491905b808211156101c05760008160009055506001016101a8565b5090565b90565b6105bd806101d66000396000f3fe608060405234801561001057600080fd5b506004361061004c5760003560e01c80633290e9c11461005157806342431e761461010957806392105b6e14610168578063d826f88f14610172575b600080fd5b6101076004803603602081101561006757600080fd5b810190808035906020019064010000000081111561008457600080fd5b82018360208201111561009657600080fd5b803590602001918460208302840111640100000000831117156100b857600080fd5b919080806020026020016040519081016040528093929190818152602001838360200280828437600081840152601f19601f82011690508083019250505050505050919291929050505061017c565b005b610111610295565b6040518080602001828103825283818151815260200191508051906020019060200280838360005b83811015610154578082015181840152602081019050610139565b505050509050019250505060405180910390f35b6101706102ed565b005b61017a610449565b005b60008081819054906101000a900460ff168092919060010191906101000a81548160ff021916908360ff1602179055505060008090505b600460009054906101000a900460ff1660ff1681101561025d5760008282815181106101db57fe5b602002602001015161ffff161461021457600281815481106101f957fe5b90600052602060002001600081548092919060010191905055505b81818151811061022057fe5b602002602001015161ffff166001828154811061023957fe5b906000526020600020016000828254019250508190555080806001019150506101b3565b50600460009054906101000a900460ff1660ff166000809054906101000a900460ff1660ff161415610292576102916102ed565b5b50565b606060038054806020026020016040519081016040528092919081815260200182805480156102e357602002820191906000526020600020905b8154815260200190600101908083116102cf575b5050505050905090565b60008090505b600460009054906101000a900460ff1660ff1681101561035d576002818154811061031a57fe5b90600052602060002001546001828154811061033257fe5b9060005260206000200160008282548161034857fe5b049250508190555080806001019150506102f3565b5060008090505b600460009054906101000a900460ff1660ff1681101561043e5760006001905060008090505b600460009054906101000a900460ff1660ff16811015610410576000600182815481106103b357fe5b90600052602060002001541461040357600183815481106103d057fe5b9060005260206000200154600182815481106103e857fe5b906000526020600020015410156104025781806001019250505b5b808060010191505061038a565b508060ff166003838154811061042257fe5b9060005260206000200181905550508080600101915050610364565b50610447610449565b565b60008060006101000a81548160ff021916908360ff160217905550600460009054906101000a900460ff1660ff166040519080825280602002602001820160405280156104a55781602001602082028038833980820191505090505b50600190805190602001906104bb929190610516565b50600460009054906101000a900460ff1660ff166040519080825280602002602001820160405280156104fd5781602001602082028038833980820191505090505b5060029080519060200190610513929190610516565b50565b828054828255906000526020600020908101928215610552579160200282015b82811115610551578251825591602001919060010190610536565b5b50905061055f9190610563565b5090565b61058591905b80821115610581576000816000905550600101610569565b5090565b9056fea265627a7a72315820502cfa73a4501b687f7983e307d84c77708fd34a088bdb118ae150a108d814f364736f6c63430005100032",
  "source": "// SPDX-License-Identifier: MIT\r\npragma solidity >=0.4.22 <0.9.0;\r\n\r\ncontract Rank {\r\n\t// mapping(uint8 => uint8) public IdtoIndex;\r\n\t// mapping(uint8 => uint8) public IndextoId;\r\n\r\n\tuint8 n_clientsVoted ;\r\n\tuint[] avgdistarr ; \r\n\tuint[] votearr ; \r\n\tuint[] rankarr ; \r\n\r\n\tuint8 numclient ; \r\n\r\n\tconstructor() public {\r\n\t\tn_clientsVoted = 0 ;\r\n\t\tnumclient = 5 ; \r\n\t\tavgdistarr = new uint[](numclient) ; \r\n\t\tvotearr = new uint[](numclient) ; \r\n\t\trankarr = new uint[](numclient) ; \r\n\t}\r\n\t\r\n\tfunction reset() public {\r\n\t    n_clientsVoted = 0 ;\r\n\t\tavgdistarr = new uint[](numclient) ; \r\n\t\tvotearr = new uint[](numclient) ; \r\n\t}\r\n\r\n\tfunction ranking() public {\r\n\t\tfor(uint i = 0 ; i<numclient ; i++){\r\n\t\t\tavgdistarr[i]/=votearr[i] ; \r\n\t\t}\r\n\r\n\t\tfor(uint i = 0 ; i<numclient ; i++){\r\n\t\t\tuint8 rank = 1 ;\r\n\t\t\tfor(uint j = 0 ; j<numclient ; j++){\r\n\t\t\t\tif(avgdistarr[j]!=0){\r\n\t\t\t\t\tif(avgdistarr[j]<avgdistarr[i]){\r\n\t\t\t\t\t\trank++ ; \r\n\t\t\t\t\t}\r\n\t\t\t\t} \r\n\t\t\t}\r\n\t\t\trankarr[i] = rank ; \r\n\t\t}\r\n\t\treset();\r\n\t}\r\n\r\n\tfunction upload(uint16[] memory avgdist) public {\r\n\t\tn_clientsVoted++ ;\r\n\t\tfor (uint i = 0 ; i < numclient ; i++){\r\n\t\t\tif(avgdist[i]!=0){\r\n\t\t\t\tvotearr[i]++ ;\r\n\t\t\t}\r\n\t\t\tavgdistarr[i] += avgdist[i] ; \r\n\t\t}\r\n\t\tif (n_clientsVoted == numclient){\r\n\t\t\tranking();\r\n\t\t}\r\n\t}\r\n\r\n\tfunction see_rank() public view returns(uint[] memory){\r\n\t\treturn rankarr ; \r\n\t}\r\n\r\n\r\n    //개별 ranking 산정 version \r\n    // function ranking(uint8 clientIndex) returns(uint8) public{\r\n    //     uint8 rank = 1 ; \r\n    //     for(uint i = 0 ; i<avgdistarr.length ; i++){\r\n    //         if(avgdistarr[i]!=0){\r\n    //             if(avgdistarr[i]<avgdistarr[clientIndex]){\r\n    //                 rank ++ ; \r\n    //             }\r\n    //         }\r\n    //     }\r\n    //     return rank ; \r\n    // }\r\n\r\n}",
  "sourcePath": "C:/Users/User/Development/pytorch/graduate_project/FLwithBC-just-ledger/src/truffle/contracts/Rank.sol",
  "compiler": {
    "name": "solc",
    "version": "0.5.16+commit.9c3226ce.Emscripten.clang"
  },
  "schemaVersion": "3.3.3",
  "updatedAt": "2021-02-10T08:15:43.090Z",
  "devdoc": {
    "methods": {}
  },
  "userdoc": {
    "methods": {}
  }
}